:020000040800F2
:1000000038080020C9010008D50E0008090A0008B8
:10001000D10E0008C90200083915000800000000D0
:100020000000000000000000000000000F140008A5
:10003000150300080000000005120008F514000870
:10004000DF010008DF010008DF010008DF01000810
:10005000DF010008DF010008DF010008DF01000800
:10006000DF010008DF010008DF010008DF010008F0
:10007000DF010008DF010008DF010008DF010008E0
:10008000DF010008DF010008DF010008DF010008D0
:10009000DF010008DF010008DF010008DF010008C0
:1000A000DF010008DF010008DF010008DF010008B0
:1000B000DF010008DF010008DF010008DF010008A0
:1000C000DF010008DF010008DF010008DF01000890
:1000D000DF010008211500082D150008DF010008C8
:1000E000DF010008DF010008DF01000800F002F86E
:1000F00000F05AF80AA090E8000C82448344AAF168
:100100000107DA4501D100F04FF8AFF2090EBAE865
:100110000F0013F0010F18BFFB1A43F0010318473B
:1001200064410000844100000A444FF0000C10F8C4
:10013000013B13F0070408BF10F8014B1D1108BF65
:1001400010F8015B641E05D010F8016B641E01F805
:10015000016BF9D113F0080F1EBF10F8014BAD1C55
:100160000C1B09D16D1E58BF01F801CBFAD505E073
:1001700014F8016B01F8016B6D1EF9D59142D6D3CD
:10018000704700000023002400250026103A28BFF5
:1001900078C1FBD8520728BF30C148BF0B607047F9
:1001A0001FB51FBD10B510BD00F05BF81146FFF77D
:1001B000F7FF01F05DFF00F079F803B4FFF7F2FFFD
:1001C00003BC01F08AFA000008480047FEE7FEE79A
:1001D000FEE7FEE7FEE7FEE7FEE7FEE7FEE7FEE7F7
:1001E00003480449044A054B70470000ED0000082D
:1001F000380200203808002038040020380400208D
:10020000704740EA010310B59B070FD1042A0DD3B4
:1002100010C808C9121F9C42F8D020BA19BA8842E7
:1002200001D9012010BD4FF0FF3010BD1AB1D30726
:1002300003D0521C07E0002010BD10F8013B11F85C
:10024000014B1B1B07D110F8013B11F8014B1B1B85
:1002500001D1921EF1D1184610BD7047704770470A
:100260007047754600F02CF8AE46050069465346C7
:1002700020F00700854618B020B5FFF7B1FFBDE8B4
:1002800020404FF000064FF000074FF000084FF0FD
:10029000000B21F00701AC46ACE8C009ACE8C0098E
:1002A000ACE8C009ACE8C0098D46704710B50446FB
:1002B000AFF300802046BDE81040FFF77EBF00008E
:1002C00000487047D801002000BFFEE710B5044683
:1002D0000A200F494871087101F0AEFF02F000F8E2
:1002E00002F029F800BF012001F0CCFB401C0028DF
:1002F000F9D002F01BF8064801F05EFA44F24C0017
:1003000001F02BFD44F24C0001F066FD10BD000031
:10031000F8000020704700002DE9F04F95B08246AC
:10032000002001F023FD002001F0D3FC00BF0021DC
:100330000F2001F05DFCAD490860AD490840002880
:10034000F5D0AA48008800F4804000287ED04FF401
:10035000804200210F2001F0C4FD0021102001F097
:1003600047FCC0F30900A349086008460068B0F5DF
:10037000806F06D80846008881B200229E4801F0AE
:100380008BFC00209C498870084640799B49086096
:100390000A229B499848FFF734FF00287ED101F0DC
:1003A0003BFE984A03C297480078974908709548E1
:1003B000D0E90010954BC91840F10000020642EA4E
:1003C00011201390139801F0AEFC4FF4FA7001F075
:1003D000B2FC40F6E44001F0C9FC8D4801788D483C
:1003E000817000228C4BDAE90041204602F09CFB30
:1003F000CAE9000100221346DAE90041204602F072
:1004000057FB05D2DAE9000181F00041CAE9000199
:10041000DAE90021104602F0B9FA000A7D49C872F3
:10042000DAE90021104602F0B1FA7A490873002295
:100430000F2001F0A2FD00210F2001F0B1FD0320EB
:1004400001F0D2FC00BF00210F2000E0C6E001F067
:10045000CFFB66490860664908400028F3D06C4825
:100460000078401C6A4908706048008800F48040A9
:1004700000287CD04FF4814200210F2001F031FD93
:100480000021102001F0B4FB00F07F005949086002
:1004900008460068182808D8084600E0A3E000884D
:1004A00081B20022544801F0F7FB002152488170CC
:1004B0000A225A49FFF7A5FE00287DD101F0C2FDAE
:1004C000574A03C201F0A8FD564A03C212A94A487E
:1004D0000A3001F091FD11A947480E3001F08CFD62
:1004E00010A94548123001F087FD464800680F907A
:1004F0004B48D0F800B04B4800680E90DDE911126F
:10050000881A02F0C2FA04460D460E99A1EB0B00C0
:1005100002F0BBFA06460F46DDE91012881A02F017
:10052000B4FA804689460F99ABEB010002F0ADFAB0
:10053000CDE90C0132463B462046294601F0DEFF5C
:1005400042464B46CDE9000101F0D8FFCDE902015A
:10055000DDE90C2301F0D2FFCDE906014046494612
:10056000DDE90C2302F0E0FA32463B4600E02FE0E2
:10057000CDE902012046294602F0D6FACDE9000174
:10058000DDE9022302F0CEFBCDE90401DDE906231B
:1005900002F068F8CDE9080103F024F8CDE90A017A
:1005A000DDE90A0102F020FA1F4A204BCDE90801DB
:1005B00002F0BAFA1E4A00E00FE003C24FF0985270
:1005C0001C4B1B4903C902F0AFFACAE9000104E061
:1005D000194A00210F2001F084FC04E0164A002192
:1005E0000F2001F07EFC15B0BDE8F08F0401002063
:1005F00000D027246801002084010020140000207E
:100600000801002040010020100000200000280AFE
:10061000580100201401002000005940230100204F
:100620004801002050010020FA48CE3B1835B13D6A
:100630006001002019DDB14100902724014600200F
:100640000022044B1B6803EA01020AB1012000E00A
:1006500000207047000401402DE9F04102460025CA
:100660000026002000230024002791F803C00CF08E
:100670000F0591F803C00CF0100CBCF1000F03D073
:1006800091F802C04CEA050591F800C0BCF1000FDA
:1006900031D0146800202BE04FF0010C0CFA00F36D
:1006A000B1F800C00CEA03069E4220D183004FF04F
:1006B0000F0C0CFA03F7BC4305FA03FC4CEA0404E4
:1006C00091F803C0BCF1280F06D14FF0010C0CFAD1
:1006D00000FCC2F814C00AE091F803C0BCF1480F56
:1006E00005D14FF0010C0CFA00FCC2F810C0401C00
:1006F0000828D1D31460B1F800C0BCF1FF0F34DD7D
:10070000546800202EE000F1080C4FF0010808FAB0
:100710000CF3B1F800C00CEA03069E4221D183001D
:100720004FF00F0C0CFA03F7BC4305FA03FC4CEA3C
:10073000040491F803C0BCF1280F05D100F1080CA6
:1007400008FA0CF8C2F8148091F803C0BCF1480F05
:1007500007D100F1080C4FF0010808FA0CF8C2F8B4
:100760001080401C0828CED35460BDE8F081416160
:1007700070470161704700002DE9F04F89B00546D0
:100780000E460024F5E000200490274626E0A0460F
:100790001FE007FB068040B20790079955F821003B
:1007A00002F0AAFB21F00041CDE9020101F074FE44
:1007B00083465846049902F063FE06D2CDF810B085
:1007C00006A8075505A800F8048008F101004FFAB3
:1007D00080F8701E4045DCDA781C47B2701EB842C3
:1007E000D5DA049802F088FB0022864BCDE900019F
:1007F00001F084FE0022834BCDE9020102F08AF869
:1008000003D1002009B0BDE8F08F06A80057A04230
:100810001BD04FF0000815E004FB06804FFA80F96A
:1008200006A8005700FB06804FFA80FA55F829B059
:1008300055F82A0045F8290045F82AB008F10100CA
:100840004FFA80F8701E4045E6DA05A80057A0422E
:1008500018D0002713E007FB06404FFA80F905A8DF
:10086000005707FB06004FFA80FA55F829B055F8F3
:100870002A0045F8290045F82AB0781C47B2701EB6
:10088000B842E8DA04FB064040B20790079955F8F1
:10089000210002F031FB02460B46CDE900010020A9
:1008A000584901F0DFFECDE9020101F0F5FD07999D
:1008B00045F821004FF0000812E0A0450CD004FBE1
:1008C00006804FFA80F9079A55F8221055F829004A
:1008D00002F00AFD45F8290008F101004FFA80F8FE
:1008E000701E4045E9DA002724E0A74220D04FF0EF
:1008F00000081AE0A04514D007FB06804FFA80F9E3
:1009000004FB068255F8221007FB064255F8220028
:1009100002F0EAFC039055F8291002F0E2FD45F8D8
:10092000290008F101004FFA80F8701E4045E1DA15
:10093000781C47B2701EB842D7DA002714E0A742ED
:1009400010D007FB06404FFA80F955F8290080F0D7
:1009500000400390079855F82010039802F0C4FC5B
:1009600045F82900781C47B2701EB842E7DA601CCF
:1009700044B2701EA042BFF606AF44B23EE005A8E6
:100980000057A0421BD04FF0000815E004FB068082
:100990004FFA80F905A8005700FB06804FFA80FA4D
:1009A00055F829B055F82A0045F8290045F82AB02D
:1009B00008F101004FFA80F8701E4045E6DA06A8FB
:1009C0000057A04218D0002713E007FB06404FFA5B
:1009D00080F906A8005707FB06004FFA80FA55F881
:1009E00029B055F82A0045F8290045F82AB0781CA6
:1009F00047B2701EB842E8DA601E44B2002CBEDA7C
:100A00000120FFE60000F03F00BFFEE718488069C4
:100A100040F00400164988611648006820F0F00094
:100A2000144908600846006840F0800008601148DA
:100A30000C30006840F002000E490C3108600C4890
:100A4000806940F010000A4988610B484068C0F393
:100A500013000949486008464068084908430649A8
:100A600048600846C06840F46040C86070470000B5
:100A70000010024000080140001001400000808882
:100A800009480068C0000949D1F8381140EA8100DE
:100A90000649D1F83C1140EA41000549D1F804115A
:100AA0000843C0B2704700003401224200002242D5
:100AB000000021427CB505460120009003464C4AC7
:100AC0004C4901904C4800F0B0F901234B4A4C4985
:100AD000494800F06FF9012003464A4A4A4900900C
:100AE000464800F04DF90123444A4649474800F082
:100AF00061F901200346414A45490090104600F043
:100B00003FF901213D48FFF737FE01231A464149CD
:100B10003E4800F0C5F90120009003463E4A3D4999
:100B20000190384800F081F90120009003463B4ACB
:100B300039490190314800F078F9012000900346CE
:100B40002E4A2B490190314800F06FF901200346ED
:100B50002A4A11460090284600F04DF901200090E5
:100B600003462C4A254901902C4800F05EF90120EB
:100B70000346204A121F274900901D4800F000F943
:100B80000120009003461D4A20490190234800F0AF
:100B90004CF901200346194A11460090204800F004
:100BA0002AF9012000900346154A121F15490190A9
:100BB000124800F03AF900240FE00E48001F50F8E8
:100BC0002410001D40F824100D48001F50F8241078
:100BD000001D40F82410601CC4B2012CEDDB054858
:100BE000001F00680F490860084600687CBD0000CF
:100BF0004800002038000020580000206800002035
:100C0000400000204C0000205C0000206400002018
:100C1000600000206C0000205400002050000020E4
:100C2000440000200C0000200C48806940F00800BF
:100C30000A4988610A48006820F070600849086025
:100C40000846006840F040700860054808300068B9
:100C500040F48040024908310860704700100240AB
:100C6000040C014000B5002015490861C86014203B
:100C7000486100208861C8610846006840F00100B2
:100C80000860084640680F4908400D49486008461A
:100C900000680D4908400A4908600846006820F4C9
:100CA000802008600846406820F4FE00486000206C
:100CB000886000214FF0006000F058F800BD00008F
:100CC000001002400000FFF8FFFFF6FE2DE9F041A2
:100CD0000746884614461D46284600F033F8C5F1FD
:100CE000040007FA00F60F20284100EA0800064336
:100CF00006F00F06E21704EBD2625211920002F1E5
:100D0000E022D2F800212146E31704EBD3635B1104
:100D1000A4EB431C012303FA0CF31A432046E31708
:100D200004EBD3635B119B0003F1E023C3F80021C4
:100D30000348005D40EA061001490855BDE8F0810E
:100D400000E400E00146072323EA01021202054BFA
:100D500018684FF6FF031840034B18431043014B2C
:100D6000186070470CED00E00000FA05024A0A40E6
:100D70000243024B1A60704780FFFF1F08ED00E03E
:100D80002DE9F04705460E4617469846DDF82090B7
:100D9000002409E056F8241055F8240002F0D8F891
:100DA00047F82400601CC4B208FB09F0A042F1DC43
:100DB000BDE8F0872DE9FF4105460E4617461C4663
:100DC0000020039002900094234603AA314628464F
:100DD000019400F02AF82346224602A9284600F092
:100DE0005FF8009423463A4602A903A8019400F054
:100DF0001CF8BDE8FF812DE9F04705460E46174671
:100E00009846DDF82090002409E056F8241055F8A3
:100E1000240002F071FB47F82400601CC4B208FBF8
:100E200009F0A042F1DCBDE8F0872DE9FF4F81B069
:100E300081468A461746DDE90EB600242AE00025E1
:100E400024E0002004FB065147F82100804619E009
:100E500008FB06525AF8221004FB0B8259F82200B4
:100E600002F042FA009004FB065057F82010009858
:100E700002F06EF804FB065147F8210008F101006A
:100E800000F0FF08D845E3DB681CC5B2B542D8DBEB
:100E9000601CC4B204988442D1DB05B0BDE8F08F79
:100EA000F0B504460D4600200FE0002109E001FBEB
:100EB000030654F8266000FB021745F827604E1C15
:100EC000F1B29142F3DB461CF0B29842EDDBF0BD8B
:100ED00000BFFEE77047000010B5002807DA0A07D8
:100EE000140E054A00F00F031B1FD45403E00A0739
:100EF000130E024A135410BD18ED00E000E400E0A8
:100F000070B50646002415E004F1B001C8B200F047
:100F100027F9012000F024F9102000F021F9002524
:100F200004E0304600F044F9681CC5B2802DF8DBBF
:100F3000601CC4B2082CE7DB70BD000010B542484D
:100F4000806940F008004049886140480068404995
:100F500008403E490860084600683E4908433B494E
:100F600008603A480830006840F47050374908314A
:100F700008600846006840F40040086000203649D8
:100F800008603649C1F8AC01322000F0F7FB0120BF
:100F90003149091F0860AE2000F0E2F8002000F09F
:100FA000DFF8102000F0DCF8402000F0D9F88120B4
:100FB00000F0D6F8CF2000F0D3F8A12000F0D0F850
:100FC000C82000F0CDF8A62000F0CAF8A82000F054
:100FD000C7F83F2000F0C4F8D32000F0C1F800208B
:100FE00000F0BEF8D52000F0BBF8802000F0B8F883
:100FF000D92000F0B5F8F12000F0B2F8DA2000F0C6
:10100000AFF8122000F0ACF8DB2000F0A9F8402087
:1010100000F0A6F8202000F0A3F8022000F0A0F8CD
:101020008D2000F09DF8142000F09AF8A42000F024
:1010300097F8A62000F094F8AF2000F091F8002077
:10104000FFF75EFF10BD000000100240040C0140DD
:10105000FF00000F00333330B08121420080214275
:101060002DE9F04180460E46174600247D013146A9
:10107000404600F061F800BF07E00E49485D00F00F
:1010800097F8681C85B2601CC4B2102CF5DB701C8C
:10109000C1B2404600F050F8002407E00549485D21
:1010A00000F086F8681C85B2601CC4B2102CF5DB19
:1010B000BDE8F081C03E00082DE9F04107468846B2
:1010C00015460026002430E028782038C6B2782F54
:1010D00004DD002708F1010000F0FF084146384612
:1010E00000F02AF8002407E004EB0611114A505CD6
:1010F00000F05EF8601CC4B2082CF5DB08F10100BA
:10110000C1B2384600F018F8002408E004EB0611DC
:101110000831084A505C00F04BF8601CC4B2082C3F
:10112000F4DB07F10800C7B26D1C28780028CBD18A
:10113000BDE8F081D038000830B504460D4605F111
:10114000B001C8B200F00CF8102141EA141000F010
:1011500007F804F00F0141F0010000F001F830BD84
:1011600008210022104B1A60104BC3F8B42115E07F
:1011700000F0800222B101220B4B14331A6003E00D
:101180000022094B14331A600122074B0C331A60FA
:101190000022064BC3F8B4214206100E0A1EA1F12C
:1011A0000103D9B2E4D17047A881214200802142D5
:1011B00008210122114B1A600022114BC3F8B421FF
:1011C00015E000F0800222B101220C4B14331A60AA
:1011D00003E00022094B14331A600122074B0C3341
:1011E0001A600022064BC3F8B4214206100E0A1EF4
:1011F000A1F10103D9B2E4D170470000A8812142D6
:10120000008021427047000029B1064A126902435A
:10121000044B1A6104E0034A12698243014B1A61CC
:10122000704700000010024029B1064A926902434B
:10123000044B9A6104E0034A92698243014B9A612C
:10124000704700000010024029B1064AD2680243EC
:10125000044BDA6004E0034AD2688243014BDA604F
:10126000704700000010024001460020044A108828
:101270004FF6C77210400843014A108070470000C3
:101280000030014021B1028842F04002028004E0B7
:1012900002884FF6BF731A400280704700B587B0CE
:1012A000294800F055F80020ADF808004FF482708E
:1012B000ADF80A000020ADF80C00ADF80E00ADF856
:1012C00010004FF40070ADF812001020ADF81400BB
:1012D0000020ADF816000720ADF8180002A91A4842
:1012E00000F06BF8A020ADF8040018208DF807007E
:1012F00003208DF8060001A91448FFF7ADF940203E
:10130000ADF8040048208DF8070001A90F48FFF749
:10131000A3F91020ADF804008DF8070003208DF824
:10132000060001A90948FFF797F90021064800F0D7
:1013300062F801210448FFF7A5FF10210348FFF7D9
:1013400018FA002007B000BD00300140000801403D
:1013500010B504461148844208D101218014FFF7DA
:1013600073FF0021A014FFF76FFF16E00C488442C2
:1013700008D101210014FFF747FF00212014FFF7D7
:1013800043FF0AE00748844207D10121C013FFF759
:101390003BFF0021E013FFF737FF10BD0030014095
:1013A00000380040003C00400246002013890B40FA
:1013B0000BB1012000E00020704710B50022028828
:1013C00002F441520B884C8823438C882343CC88F9
:1013D00023430C8923434C8923438C892343CC89A1
:1013E00023431A430280838B4FF2FF74234083838D
:1013F0000B8A038210BD21B1828842F004028280F0
:1014000004E082884FF6FB731A4082807047704771
:1014100030B504460025FFF725FC1F48006840F45E
:1014200080301D49086000BF1B480068400C002840
:10143000FAD04FF4806018494860A01EC4B2084634
:10144000406840EA844048600846406840F4803084
:1014500048601248006840F03200104908600E48A9
:10146000006840F080700C49086000BF0A480068BE
:10147000400E0028FAD00848406840F002000649B3
:10148000486005E004484068C0F3870505F003059F
:10149000022DF7D130BD00000010024000200240B4
:1014A00010B5134800684FF47A71B0FBF1F4B4F151
:1014B000807F01D3012011E024F07F40401E4FF0D7
:1014C000E02148610F214FF0FF30FFF705FD0020BC
:1014D0004FF0E021886107200861002008B100BFBB
:1014E000FEE70521881FFFF7F7FC002010BD000074
:1014F0006C01002002480068401C014908607047E8
:101500008001002000BF0549098801F04001002941
:10151000F9D00249091D08807047000000380140D9
:1015200001480088704700000038014001480088E9
:10153000704700000044004000BFFEE738B5044695
:101540006D2000906B46012240F606012E2000F02F
:10155000E0FC3CB140F2076241F606012E2000F0AB
:10156000ADFC06E041F2076241F606012E2000F0D4
:10157000A5FC38BD38B504466B4602220021362052
:1015800000F058FB0E2C57D2DFE804F011071A5672
:10159000565656233256563F464D00208DF80000D1
:1015A0009DF8010000F0FE008DF8010045E09DF877
:1015B000000000F0FC0040F001008DF800003CE06D
:1015C0009DF8000000F0FC0040F002008DF80000E3
:1015D00033E09DF8000000F0B30040F048008DF8C3
:1015E00000009DF8010040F080008DF8010024E02B
:1015F0009DF8000000F0B3008DF800009DF8010098
:1016000000F07F008DF8010017E09DF8010040F028
:1016100002008DF8010010E09DF8010000F0FD00CF
:101620008DF8010009E09DF8000000F0CF0040F0C7
:1016300020008DF8000000E000BF00BF6B460122D3
:101640000021362000F065FC0DF101030122114656
:10165000362000F05EFC38BD08B503208DF801008F
:1016600001208DF800006B4602220021362000F098
:1016700050FC4FF4004206212D2000F01FFC0120F9
:1016800000F02DF80120FFF775FF08BD38B50446BE
:10169000200A8DF80100E0B28DF800006B460222AE
:1016A00004212D2000F035FC03208DF800006B464E
:1016B000012206212D2000F02CFC00208DF80000D6
:1016C0006B46012206212D2000F023FC0A212D204B
:1016D00000F08EFA0546284638BD00BF704770B549
:1016E000044600F0B7FD051900BF00F0B3FD401B34
:1016F0000028FADD70BD014651B117200122824059
:1017000043099B0003F1E023C3F8002100BF00BFA1
:101710007047000010B51720FEF790FF044644B153
:10172000172001218140044A430942F8231000BFD9
:1017300000BF204610BD000080E100E04FF0E02136
:10174000096921F004014FF0E0221161C21700EB9A
:101750005272C2F3C702074B1A701946097801EB9F
:101760004102C2EBC1114FF6FF7202EAC101024A07
:1017700011807047700000207200002001460D4A61
:1017800012884A434FF0E0235A6100229A610122F5
:101790001A6100BF4FF0E022106900F001021AB197
:1017A00000F48032002AF5D000224FF0E0231A61C5
:1017B0009A617047720000202DE9F84F04464FF0FF
:1017C0000009CA4625786079824931F8108060782E
:1017D000401E8149C6B20863042D01D0072D01D1F6
:1017E000012000E00020834620787B490873E079DF
:1017F00038B90846806940F4800088614FEAE808FB
:1018000005E07548806920F4800073498861207A7A
:101810007149487308468069217A4FF4403202EAE0
:10182000014108436C49886108460021826904200F
:1018300000F057FB424642F604012E2000F03EFB2A
:101840003046FFF77BFE6548405D00EB8000644951
:101850004318052207212B2000F05BFB614800EBB9
:101860000B0301220B21282000F053FB5B48405D55
:101870005D4951F820200C21282000F032FBE0794E
:101880005A4901EB8000A17930F81120022127206C
:1018900000F014FB564830F816200421272000F0F1
:1018A0000DFBE07928B964220621272000F006FB11
:1018B0001EE0A07804280DD11020009010220621EF
:1018C000272000F0FBFA6B4601222621272000F09A
:1018D00020FB0DE02820009020220621272000F088
:1018E000EDFA6B4601222621272000F012FB00BFF3
:1018F000404800EB0610E17850F82120082127200D
:1019000000F0EFFAB4F8090018B941F24100A4F868
:101910000900B4F809202021272000F0CFFA36482A
:101920000C210268232000F0DCFA3348001D30F857
:1019300016200421232000F0C1FAA07958B1E079E3
:101940002E49431801220021212000F0E2FA4FF035
:1019500003094FF0010A05F00F00F02101EA05111B
:10196000084361784FF4402202EA81410843910024
:1019700001EA095108434FF4003101EA4A410843A2
:1019800021794FF0F86202EA8151084361795201EE
:1019900002EAC16140EA01073A4600211F2000F037
:1019A000A0FAA0786178084300040B490861084652
:1019B0000069E1794FF4004242EA413108430649A7
:1019C0000861084600210269082000F08AFA002018
:1019D000BDE8F88F504200089C010020D441000867
:1019E000F441000812420008DC41000820420008CF
:1019F0002C42000830420008144200081C42000833
:101A000070B505460421362000F0F2F8044615B101
:101A100044F4006401E024F40064224604213620EA
:101A200000F05FFA70BD000038B540200090002142
:101A30000E2000F0DDF80546FFF76CFE044600229C
:101A400011460E2000F04DFA6B46012200210D20B8
:101A500000F05FFA094A00210F2000F042FA00F07E
:101A600011FA2A4600210E2000F03BFA2046FFF72B
:101A700042FE0020024981F82C0038BDF8FF2724DF
:101A80009C0100202DE9FC41054604200190002620
:101A9000002700204949487508630021474880F81D
:101AA00025100020454981F82C008883486388630D
:101AB00000F0BAF841490860084600684049884289
:101AC00002D08817BDE8FC810020FFF753FD4FF0DE
:101AD0001F3200211E2000F004FA01AB0122002178
:101AE000242000F016FA1E20FFF7D0FD86B2300A3F
:101AF000324988730420FFF7C9FD0746F8B270B178
:101B0000022000906B46012212212D2000F001FAE4
:101B10002A48808B40F480502849888300BF0620E3
:101B2000FFF7B4FD254948600720FFF7AFFD2349C3
:101B3000886006F01F0008750846007D08B910206F
:101B400008751E49087D00F03DFA05F0010040B11E
:101B5000FFF782FD1948808B40F4006017498883A5
:101B60000DE00521362000F02DF804464FF6FF5019
:101B7000044022460521362000F0A0F900BF0120D4
:101B8000FFF7F8FC0021042000F032F80B498861CF
:101B90000021262000F02CF8044644F4A03444F43C
:101BA000A02422460021262000F09BF900222621B5
:101BB000362000F083F9002084E700009C0100201B
:101BC0003001CADEF8B504460D464FF6FF76A9B2DD
:101BD000A0B26B46022200F02DF8074637B99DF8F7
:101BE00000009DF8011000EB012086B23046F8BDE0
:101BF0002DE9F84305460E464FF0FF37B1B2A8B2C3
:101C00006B46042200F016F88046B8F1000F08D1A8
:101C1000032404E01DF8040000EB0727641E002CD9
:101C2000F8DA3846BDE8F88310B500210846FFF71A
:101C3000DFFF10BD2DE9F84306460C4617469846CF
:101C400000252CB9F2B228466D1C0DF800201BE0CF
:101C5000F0B240F0400228466D1C0DF800207F2CA9
:101C600005DCE2B228466D1C0DF800200CE0E0B265
:101C700040F0800228466D1C0DF80020C4F3C71206
:101C800028466D1C0DF80020A8B243463A46694626
:101C900000F0E6FABDE8F88370B504460D46164636
:101CA00023462A4631461120FFF7C4FF70BD10B508
:101CB00004462346052200211520FFF7BBFF10BD77
:101CC00010B504462346052200211720FFF7B2FF76
:101CD00010BD38B504460020009000F0D3F84FF452
:101CE00080750CB145F400752A4600210D2000F0E6
:101CF000E5F8B4B16B46012203210F20FFF79AFFEC
:101D00009DF8000000F0080058B1FFF78DFE4FF479
:101D100080752A4600210D2000F0D0F84FF0FF30EA
:101D200038BD0020FCE710B50446224601210A20F8
:101D300000F0D7F810BD70B5054600211A20FFF756
:101D400057FF04466FF31304C5F313000443224600
:101D500000211A2000F0C5F870BD10B504462246D7
:101D600041F604012E2000F0A9F810BD38B5044654
:101D70006B46012203210420FFF75CFF002C16DDD7
:101D8000224600210C2000F099F89DF8000040F058
:101D9000100000900F48806940F080500D49886124
:101DA0006B4601220321042000F0B3F810E09DF8F7
:101DB000000020F0100000900648806920F080505C
:101DC000044988616B4601220321042000F0A1F838
:101DD00038BD00009C01002010B5044622460021B9
:101DE000182000F06BF810BDF8B50446002500205F
:101DF0000090002604F0020058B1802000906B464D
:101E0000012200210D2000F084F801201C4981F8F6
:101E10002C0004F0010028B39DF8000040F00600FB
:101E200000906B46012200210D2000F072F8032182
:101E30000F20FFF7C7FE064606F4816008B90025AB
:101E40001BE0402000906B46012200210D2000F095
:101E500060F80020FFF7D4FD0020094981F82C002C
:101E6000451E0AE09DF8000040F0020000906B461D
:101E7000012200210D2000F04CF82846F8BD00009A
:101E80009C0100201CB501AB012203210F20FFF7AC
:101E9000D1FE9DF8040000F080009DF8041001F0D0
:101EA0004001B0EB410F08D0012000906B460122A9
:101EB00003210D2000F02DF800BF1CBDF8B505462C
:101EC0000E461446E0B28DF8000020128DF8010095
:101ED000B1B2A8B26B46022200F01BF807463846A2
:101EE000F8BD2DE9F84306460F461446002504E0E8
:101EF000E0B20DF80500240A6D1C042DF8DBB9B220
:101F0000B0B26B46042200F004F880464046BDE8BB
:101F1000F8832DE9F84306460C46174698460025F7
:101F20003CB9F0B240F0800228466D1C0DF800204C
:101F30001BE0F0B240F0C00228466D1C0DF80020F6
:101F40007F2C05DCE2B228466D1C0DF800200CE069
:101F5000E0B240F0800228466D1C0DF80020C4F36A
:101F6000C71228466D1C0DF80020A8B243463A4619
:101F7000694600F053FABDE8F88370B504460E4692
:101F800015462819B0F5806F02DD4FF0FF3070BDA7
:101F9000A21E334629460920FFF7BBFF0020F6E7C3
:101FA00070B504460D4606480069204340EA855650
:101FB000324600210820FFF794FF002070BD00008A
:101FC0009C01002038B504466B4601220E212B20CF
:101FD000FFF730FE9DF8000020F01F00009004F095
:101FE0001F009DF80010084300906B4601220E214F
:101FF0002B20FFF78EFF38BD10B5024600230B6083
:10200000002006E0135CC400A3400C6823440B606E
:10201000401C0428F6DB10BD7CB500210C460D46A3
:102020006846FFF744FE042607E0280240EA1465EC
:1020300024021DF806000443761E002EF5DA204621
:1020400029467CBD7CB500210C460D466846FFF74D
:1020500037FE042607E0280240EA146524021DF832
:1020600006000443761E002EF5DA204629467CBD84
:102070000920FFF7CDF94820FFF760FB4FF4165118
:10208000482000F05DF9FEF7CFFDFEF757FFFEF7A1
:10209000BDFC042200210846FEF7E2FF05220021D4
:1020A0001020FEF7DDFF102203210020FEF7D8FFED
:1020B000112203211020FEF7D3FF4EA2032120207E
:1020C000FEF7FAFF122203217020FEF7C9FF4AA291
:1020D00006210020FEF7F0FF48A206210820FEF7A7
:1020E000EBFF47A206211020FEF7E6FF45A20621DE
:1020F0001820FEF7E1FF132206212020FEF7B0FF93
:10210000142206212F20FEF7ABFF3AA206213C2025
:10211000FEF7D2FF3CA206214220FEF7CDFF3BA2F4
:1021200006214A20FEF7C8FF152206215320FEF79C
:1021300097FF162206216220FEF792FF1722062142
:102140007120FEF78DFFFEF79BFC0446FEF7BEF8FC
:102150004FF47A70FFF712FB4BE02D48FEF7DCF8E6
:1021600000222C4B2A4903C900F0A2FC41D828497F
:1021700003C900F091F9284908600846FEF79AFC67
:1021800026480068C0432649C1F8B80125492648B9
:10219000006801F0A9F8254908604FF087412348FD
:1021A000006800F043FF044601F002F8204908608F
:1021B0000968080201F038F805461C4801682846FD
:1021C00001F08FF9044600F0F3FF1A490860FF2080
:1021D000FFF798F9FE20FFF795F915480068FFF71B
:1021E00091F914480068FFF78DF90C490868FFF76A
:1021F00089F9B2E73A0000005400000044000000F2
:102200004F00000041000000620000007900000063
:10221000000000200000494008000020B881214251
:10222000008021420000C8420C0000203000002045
:10223000200000202C00002010B501210803FEF72B
:10224000F3FFFFF72DF9FFF729F80A20FFF747FA08
:1022500010BD0000014800687047000080010020A8
:102260002DE9F04706460F4690461D460024FFF72D
:1022700051FA814610201849086000BF0DE0385D12
:102280001649888100BF01211448FFF78DF8002806
:10229000F9D0124880892870641CB442EFDB002416
:1022A0000DE000200D49888100BF0C48008900F036
:1022B00001000028F9D0094880892855641C44454C
:1022C000EFD310200449091F08604846FFF713FAAE
:1022D0000020BDE8F08700001408014000300140F4
:1022E00008B50120ADF8000010208DF80300032090
:1022F0008DF8020069460C48FEF7AEF901210A4844
:10230000FEF735FA0120ADF8000000208DF803003B
:1023100003208DF8020069460348FEF79DF902206C
:10232000FFF7DDF908BD00000008014000B50820F6
:10233000FEF79AFF00BD00B52020FEF795FF00BD17
:102340002DE9F05F05460E46300100F085FF81461D
:102350002E4905FB01F000F07FFF8246494600F060
:1023600065FE0746384600F03FFF84B2204600F085
:1023700073FF8346394601F0B4F882464FF083413B
:1023800000F0B2FF814600F02FFF80464FF6FF704D
:1023900000EA041404EB080084B21D48806940F090
:1023A00004001B4988610846806940F480408861C8
:1023B0001848006820F47F601649086008460068E5
:1023C00040F40B6008601248C06840F48040104937
:1023D000C8600846C06820F48040C8600E48048089
:1023E000001D008842F20C0108430B49091D0880BA
:1023F0000846008840F020000880022325220121A1
:102400000846FEF763FCBDE8F09F000040420F0065
:102410000010024004080140083801402DE9F0474F
:1024200005460E46174698460024FFF773F9814685
:1024300010201749086000BF0CE0305D1549888105
:1024400000BF1448008900F001000028F9D01148AD
:102450008089641CAC42F0DB00240DE018F8040015
:102460000C49888100BF0B48008900F0010000285A
:10247000F9D008488089641CBC42EFD3102004497D
:10248000091F08604846FFF736F90020BDE8F087CD
:10249000140801400030014021F00042A2F16052D6
:1024A000B2F5801F01F0004328BFD2F17F6C0BD939
:1024B0005FEA001C43EAC20242EB507018BF70474B
:1024C00028BF20F001007047B2F5801FBCBF18463E
:1024D00070474FEA410C1CF5001F02D2084600F07D
:1024E000CABF70B500F0CAFB00000089FFF7F6BF55
:1024F0004FF00040A0F580007047000010B591EA51
:10250000030F48BF83F0004300F11484841A71EB79
:10251000030C05D2121943EB0C03001B61EB0C01F9
:10252000DFF824E14FEA1154A4EB135C1EEA430FD9
:1025300018BF9EEA445F73D023EA0E03DCF1200E3D
:1025400021EA045143F4801332D322FA0CFE10EB3B
:102550000E0023FA0CFE41EB0E01CCF1200E03FA23
:102560000EFE10EB0E0051F10001B1F5801FCCF111
:10257000200E32D201EB045112FA0EF2BDE81040E7
:1025800058BF7047401C38BF5FEA420218BF70470F
:10259000002814BF20F0010041F100014FEA41037F
:1025A00013F5001F38BF7047A1F1C04100F0B4BB64
:1025B000012A43EB0302ACF1200CDCF11F0E32BF09
:1025C0004FF0000E23FA0CF310EB030041EB045123
:1025D000B4EB115FD0D0A1EB045101F58011490893
:1025E0005FEA300001EB04510ED350F1000038BF18
:1025F00012FA0EFE08D1BDE81040C9E7401C38BFF2
:102600005FEA4202CAD1C3E7BDE810404FEA410386
:1026100013F5001F38BF7047A1F1C04100F07CBB2B
:102620009EEA445F08D011EA5E0FBDE8104004BF87
:1026300001F0004100207047BDE8104070B500F087
:102640001DFB00BF64FBBE3E0000E0FF491058BF09
:10265000C1F140415B1058BFC3F140438B42EFF3DF
:10266000008070472DE9C04130B4DFF8A0C23CEAD9
:10267000111418BF3CEA131400F0EC8081EA030542
:102680001CEA111444EAD57418BF1CEA131500F0B3
:10269000C780A4EB05044FF0004545EAC12145EA97
:1026A000C32341EA505143EA525304F17F749942E3
:1026B00004F500344FEAC0204FEAC22208BF90421E
:1026C00000F09C804FEA13650FF24016765D4FEAEA
:1026D000134506FB05F7C7F1807706FB07F74FEABE
:1026E000D737A7FB03687642C8F58038A7FB06CE2C
:1026F00038BFA8F1010807FB08E64FF0000EA6FB63
:10270000028CE6FB03CEDCF1000CCEF1004E38BFAC
:10271000AEF1010EA6FB0C584FF000074FF000057C
:10272000E6FB0E87A1FB08C6A0FB07CE16EB0E0644
:1027300045F10005E1FB076515F1E04E7EBFA4F50C
:1027400080345FEA46066D4116F1800745F10005C9
:102750004FEA17274FEA066647EA0567A6F1DE4605
:10276000B6F1805F4FEA15251FD9384624F0010CD9
:1027700005EBC471BCF1FE6F01EB0C1102D8F0BC8B
:10278000BDE8008124425CBF01F5801E9EEAC47F43
:1027900002D4F0BCBDE80081244238D4F0BCA1F1E1
:1027A000C041BDE8004100F0B7BA4FEAD22242EA88
:1027B00043524FEAD323A7FB02864FEAD02040EAD8
:1027C000415007FB03661EEA0E0F4FEAD12105FBBD
:1027D000026658BFA6EB0056B6EB00564FEA520E03
:1027E0004EEAC37E18EB0E0E56EB530EBDD518EB1A
:1027F00002085E417F1C55F10005B6E74FF48015D5
:102800004FF000074FF000064FF00008ADE7F0BCB6
:102810004FF0000001F1C04101F00041BDE800812E
:1028200011EA0C1F0CEA131500D00CE013EA0C1F80
:1028300000F025804FF00000F0BC81EA030101F0B8
:102840000041BDE80081F0BCBDE8004181EA030120
:1028500000F062BAF0BCBDE8004170B500F00EFABD
:10286000097EFC3E00F007B881EA03014FF000004A
:1028700001F00041704781EA030100F04DBAF0BC5D
:10288000BDE800414FF0000021497047FFFDFBF912
:10289000F7F5F4F2F0EEEDEBE9E8E6E4E3E1E0DE93
:1028A000DDDBDAD8D7D5D4D3D1D0CFCDCCCBCAC805
:1028B000C7C6C5C4C2C1C0BFBEBDBCBBBAB9B8B72C
:1028C000B6B5B4B3B2B1B0AFAEADACABAAA9A8A81F
:1028D000A7A6A5A4A3A3A2A1A09F9F9E9D9C9C9BED
:1028E0009A99999897979695959493939291919098
:1028F0008F8F8E8E8D8C8C8B8B8A89898888878729
:102900008685858484838382828181800000FF079D
:102910000000F87F51EA030C17D41CF5801F58BF44
:10292000BCF5801F00F10680994218BF704708BFB0
:102930009042704707D711F5801F58BF13F5801FCD
:1029400019D499427047894270471CF5801F08D5F9
:10295000BCF5801FF7D58B4218BF704708BF824275
:1029600070474FF4001C1CEB410F38BF1CEB430FAA
:1029700001D28B42704770B500F080F99224490073
:102980004FF000514FF08053FFF760BE4FEA1153F4
:10299000A3F58063D3F11E03A8BFD3F1200C08DB9D
:1029A0004FF0004242EAC12252EA505232FA03F09A
:1029B000704709420BD4102BC4BF0020704703F5A9
:1029C000787CBCF1FF3F05D04FF0FF3070474FF0EF
:1029D0000000704770B500F051F900BF49922480A3
:1029E00000207047F0E700007FEAE17202D1101A80
:1029F00062EB0101B1FA81F30B3B24D3994012D170
:102A0000B0FA80F310FA03F108BF7047C3F11D0359
:102A100003F5406303EBC2234FEAD1224FEA415052
:102A200002EB03517047C3F1200C20FA0CFC9840D4
:102A3000C3F1320303F5406303EBC22341EA0C0107
:102A400001EB0351704710B5C3F1320CC3F1000420
:102A5000C4F1200E0CF5406C0CEBC22201FA0EFC06
:102A600021FA04F100FA0EF3E040BDE8104040EA1C
:102A70000C0001EB025138BF7047401C41F10001CE
:102A80005B0008BF20F001007047B0FA80F310FA35
:102A900003F10AD0C3F11D0303F580634FEA4150EF
:102AA0004FEA035202EBD12170474FF0000070470C
:102AB00051EA030C17D41CF5801F58BFBCF5801FCA
:102AC00000F10680994218BF704708BF90427047D6
:102AD00007D711F5801F58BF13F5801F19D49942ED
:102AE0007047894270471CF5801F08D5BCF5801FD0
:102AF000F7D58B4218BF704708BF824270474FF42A
:102B0000001C1CEB410F38BF1CEB430F01D28B4262
:102B1000704770B500F0B2F8922449004FF00051B0
:102B20004FF08053FFF792BDDFF848C170B51CEA43
:102B3000111E1EBF1CEA13159EEA0C0F95EA0C0F1E
:102B400000F06F8081EA030423EA4C134EEAD47E3E
:102B500021EA4C1141F4801143F48013AE44A1FBEF
:102B6000024CA0FB0365AEF17F7E361955EB0C05D8
:102B7000A1FB034C4CF10003A0FB021C16EB0C065E
:102B8000654153F10003094218BF46F0010613F4F2
:102B9000007F0BD14FEA03314FEA0530340341EA9D
:102BA000155140EA16506FF003020AE04FEAC321C4
:102BB0004FEAC520F40241EA555140EA56506FF001
:102BC000020202EB2E4201EB025585EACE710AD0D9
:102BD0005FEA440C18BF24F0004450F1000041F1BA
:102BE000000120EAD47040F2FE7C624500D270BD44
:102BF000A84214BF4FF080444FF04044002E08BF5D
:102C00000024BEF1806FA8BFA1F1C041BDE87040B3
:102C100080F282804FF0000001F1C04101F00041DC
:102C200070479EEA0C0F0CEA131518BF95EA0C0FBB
:102C300006D04FF0000081EA030E0EF0004170BD97
:102C400000F01CF88900013E00F007B800F009B858
:102C50004FEA430C5FEA5C5C08D081EA030100F0B4
:102C60005BB84FEA410C5FEA5C5CF6D14FF00000C4
:102C7000014970470000FF070000F87F0EF1020EC7
:102C80002EF0030E5EF8046B364205D4012A43EBA6
:102C9000030515F5001F12D8012841EB010C1CF5A6
:102CA000001F0CD80ED14FEAD17C15F5001F0CEB9C
:102CB0004C0C0CF1020C08BF4CEBD37C04E04FF041
:102CC000080C01E04FEAD37C0CEB4C0526FA05F624
:102CD00006F00706B6F1040C06D20EEB860CBDE832
:102CE00070404CF0010C6047DFE80CF0090B020269
:102CF0004FF000414FF00000A1F5002170BD1946D2
:102D00001046012851EB010418BFD4F5001484BF0C
:102D1000002001F0004170BD0808A0F500114FEA45
:102D20003101704710B591EA030F48BF83F00043AB
:102D30003FF5ECAB841A71EB030C07D212198CF03F
:102D4000004C43EB0C03001B61EB0C01DFF8A4E12A
:102D50004FEA1154A4EB135C1EEA430F18BF9EEA1E
:102D6000445F00F0B08023EA6E03524221EA04512E
:102D7000C3EB6E0338BF5B1EDCF1200E25D322FAB5
:102D80000CFE10EB0E0043FA0CFE41EB0E01CCF1F1
:102D9000200E03FA0EFE10EB0E0051F10001CCF1F3
:102DA000200E29D412FA0EF201EB0451BDE81040B6
:102DB00058BF7047401C1CBFB2F1004F704700283D
:102DC0000CBF491C20F00100704712EB020E43EBD0
:102DD000030218BF4FF0010E4EEA4202ACF1200C84
:102DE000DCF11E0E54D943FA0CFE10EB0E0051F12B
:102DF000FF31CCF11E0ED5D50EF1010E12FA0EFEEA
:102E0000404141EB010101EB445C5FEA5C5C10D99D
:102E100010EBDE7001EB045138BFBEF1004FBDE88E
:102E2000104018BF704700280CBF491C20F001005B
:102E3000704730D24FEAD42C11F5001124F400640D
:102E40001BD0B1FA81F20B3AA41AA41ED2F12003CE
:102E5000914030FA03F31943904001EBCC71002C00
:102E600001EB0451BDE81040A8BF704701F1C0411B
:102E70004FF0000001F000417047B0FA80F310FA03
:102E800003F100D110BDE41A173C4805C90AE4E774
:102E900001EB045110BD491001EB0451BDE8104095
:102EA0004FEA300002E04FF0000170474A0008BFCF
:102EB0000042F8D0B2F5001F28BF704701F0004172
:102EC0004FF0000070479EEA445F07D011EA5E0FA2
:102ED000BDE8104004BF002100207047BDE810404D
:102EE00070B5FFF7CBFE00BF40DFF63E83F0004138
:102EF000104670470000E0FF43004FEAD30C4FEA52
:102F00003C0C43401FBF40070CF1605113F0FE4FD3
:102F100070471CF0006F03D100200CF00041704797
:102F20000CF0004343EA507010B540EACC0000F0CA
:102F30005CFA00BF000000924FEA0001FFF7ECBE10
:102F40004FF000414FF00000A1F500217047000054
:102F500090EA010F48BF81F0004100F1D482421A8B
:102F60003CBF801A89184FEAD0524FF07F4C1CEAC0
:102F7000410FA2EBD15318BF9CEA026F00F03B80D7
:102F80004FF0004C4CEA00204CEA012121FA03FCEE
:102F900010EB0C0C1ED202F1FF325FEA1C2040EB5A
:102FA000C25038BF70471CF07F0F4FEA400C18BF6B
:102FB000BCF17F4F38BF7047C3F12003994008BF71
:102FC00020F00100BCF17F4F38BF7047A0F1C04036
:102FD00000F051BA4FEA3C00000A40EBC25028BF53
:102FE0001CF0FF0F4FEA400CE6D018BFBCF17F4F3A
:102FF00038BF7047EAE79CEA026F05D010EA5C0F21
:1030000008BF00F00040704710B500F0EEF900BFB7
:1030100064FBBE3E401058BFC0F14040491058BF4D
:10302000C1F140418142EFF3008070474FF47F0CC3
:103030001CEAD0121EBF1CEAD11392EA0C0F93EACD
:103040000C0F00F0858090EA010F48BF42F48072B7
:1030500040F4000C41F400002CF07F4120F07F4050
:1030600000B58142A2EB03020FF2081CACEB504EFC
:10307000C0F100009EF800E04FEA4E0E00FB0EFC8F
:1030800038BF49004FEA2C1C02F5FA020CFB0EF384
:103090004FEACE1E4FEA112C4FEAC1210EEB635EC0
:1030A00042EB22420EFB0CFC4FEA1C5300FB0311C7
:1030B0004FEA112C4FEA01310EFB0CFC4FEADC4CBD
:1030C00000FB0C11C14228BF09184CEB03335DF81B
:1030D00004EB10EB410143EBC250B2F57C0F38BF5B
:1030E000704729D512F0F00F1CBF00F1C04000F06E
:1030F00000407047008182838485868788898B8C15
:103100008D8E8F919293959697999A9C9D9FA0A250
:10311000A3A5A7A8AAACAEB0B2B3B5B7B9BCBEC0A0
:10312000C2C5C7C9CCCED1D4D7D9DCDFE2E6E9EC41
:10313000F0F3F7FAFE0000004FEA400C0CF1807C3F
:10314000BCF17E4F28BF7047B0F1C04000F093B98A
:1031500090EA010F0CEAD11348BF42F48072624535
:1031600038BF634507D213F47F0F16D080EA010001
:1031700000F00040704710B500F037F9097EFC3EC2
:1031800000F005B880EA010000F00040704780EAD6
:10319000010000F0004000F06EB912F47F0F04BF90
:1031A0000248704780EA010000F065B90000C07F66
:1031B00041000B0ED3F19E0208D950F400034FEAF0
:1031C000032323FA02F048BF4042704710B500F0D5
:1031D0000CF900BF49922480002070476FF0004234
:1031E00082EA200070470000C10DD1F19E0206DB8B
:1031F0004FEA002343F0004323FA02F070470042F5
:1032000007D54FEA4001B1F1FE4F02D24FF0000066
:10321000704710B500F0E9F849922480002070470B
:103220006FEA20007047000010F0004148BF4042A4
:10323000B0FA80F310FA03F2C3F19D030BD051EA08
:10324000C35101EB1220530638BF704700F1010053
:1032500008BF20F001007047B0FA80F310FA03F2C3
:10326000C3F19D030AD0D90501EB1220530638BFE4
:10327000704700F1010008BF20F001007047000016
:1032800050EA010C00F113801CF5000F58BFBCF58B
:10329000000F01D48842704707D710F5000F58BFC0
:1032A00011F5000F15D488427047894270471CF50C
:1032B000000F04D5BCF5000FF7D5814270474FF0E1
:1032C000807C1CEB400F38BF1CEB410F01D28142C8
:1032D000704710B500F089F8922449004FF0005073
:1032E0004FF08051FFF796BE4FF47F0C1CEAD012CE
:1032F0001EBF1CEAD11392EA0C0F93EA0C0F00F0E8
:10330000478090EA010F48BF42F480724FF0004CB2
:103310004CEA00204CEA012102EB0302A0FB01135E
:10332000A2F50002002918BF43F001035B0028BF8B
:103330004FEA330342EB22425FEA132C4CEBC250BC
:103340002EBFBCEB436FB2F57C0F70474FEA036CA6
:10335000BCF1004F08BF20F00100B2F57C0F38BF70
:1033600070470BD582F0FF0212F5803FC8BF70474F
:1033700000F1C040D8BF00F00040704700F5000CDD
:103380005FEA4C0C48BF7047B0F1C04000F073B822
:1033900090EA010F0CEAD11348BF42F480726245F3
:1033A00038BF634504D280EA010000F00040704756
:1033B00010B500F01AF800BF8900013E00F007B810
:1033C00000F009B85FEA410C5FEA1C6C08D080EAA3
:1033D000010000F050B85FEA400C5FEA1C6CF6D1C7
:1033E0004FF00040A0F5800070470EF1020E2EF065
:1033F000030E5EF8044B244204D44FEA4102B2F1BA
:103400007F4F11D84FEA4003B3F17F4F0CD80ED154
:103410004FEAD07CB2F17F4F0CEB4C0C0CF1020C5C
:1034200008BF4CEBD17C04E04FF0080C01E04FEA00
:10343000D17C0CEB4C0324FA03F404F00704B4F140
:10344000040C06D20EEB840CBDE810404CF0010CCD
:103450006047DFE80CF0070802024FF00040A0F5DB
:10346000800010BD0846420018BFD2F1807288BFAC
:1034700000F0004010BDFF2141EAD050C005704768
:1034800051EA000C00F113801CF5000F58BFBCF589
:10349000000F01D48142704707D711F5000F58BFC4
:1034A00010F5000F15D481427047894270471CF512
:1034B000000F04D5BCF5000FF7D5884270474FF0D8
:1034C000807C1CEB410F38BF1CEB400F01D28842BF
:1034D000704780EA010081EA000180EA0100FFF7FD
:1034E000F8BE80F0004090EA010F7FF538AD81F022
:1034F000004100F008B8000090EA010F48BF81F0D9
:1035000000413FF52CAD421A04D882F00042A0EBF6
:10351000020011444FEAD0524FF07F4C1CEA410F99
:10352000A2EBD15318BF9CEA026F4AD04FF0004C77
:103530004CEA00204CEA012121FA03FCB0EB0C0C10
:103540000FD412F0FE0F36D05FEA4C001DD50012EA
:1035500040EBC25038BF70471CF03F0F18BF704798
:103560000BE0A2F101025FEA1C2040EBC25038BF21
:1035700070471CF07F0F18BF7047C3F120039940BC
:1035800014BF401E20F00100704780084FEA12234C
:1035900008BF7047B0FA80FCA2EB0C02CCF1280CFB
:1035A00060FA0CF093EA122F04BF00EBC250704790
:1035B0004FEAC3707047130A5FEADC1008BF704718
:1035C000F6E79CEA026F04D010EA5C0F08BF002007
:1035D000704710B5FFF709FF40DFF63E81F000406D
:1035E000704700004FEAC1230A1543EA50534FEADF
:1035F000C02C18BF43F000431BD4A2F24E02D2F5F8
:103600007C7240F34280502AA8BF502223FA02F174
:103610002CFA02F0D2F1200260B403FA02F588BF5E
:103620002843C2F1000223FA02F598BF284360BC88
:10363000704702F57C7212F5826F08BF23F00043D9
:10364000D2F12E0221DB1AD0502AA8BF502223FA31
:1036500002F12CFA02F0D2F1200260B403FA02F572
:1036600088BF2843C2F1000223FA02F598BF28431D
:1036700060BC4042C1F1000138BF491E70479CF058
:10368000000F08BF93F0004FDED070B5FFF7F6FAD9
:103690009224498000214FF0000070476FEAE170EA
:1036A00080F00041704700000000000000000000B2
:1036B000002F000000000700070000147F147F1493
:1036C00000242A7F2A120062640813230036495519
:1036D000225000000503000000001C2241000000F1
:1036E00041221C000014083E08140008083E080887
:1036F000000000A0600000080808080800006060E2
:103700000000002010080402003E5149453E000020
:10371000427F4000004261514946002141454B3102
:10372000001814127F10002745454539003C4A49CE
:103730004930000171090503003649494936000640
:103740004949291E000036360000000056360000A8
:103750000008142241000014141414140000412223
:10376000140800020151090600324959513E007CFB
:103770001211127C007F49494936003E41414122E5
:10378000007F4141221C007F49494941007F0909CE
:103790000901003E4149497A007F0808087F00007E
:1037A000417F4100002040413F01007F0814224139
:1037B000007F40404040007F020C027F007F0408F1
:1037C000107F003E4141413E007F09090906003E4D
:1037D0004151215E007F0919294600464949493176
:1037E0000001017F0101003F4040403F001F204099
:1037F000201F003F4038403F006314081463000757
:103800000870080700615149454300007F414100AD
:1038100000552A552A55000041417F00000402014D
:10382000020400404040404000000102040000202B
:1038300054545478007F4844443800384444442069
:1038400000384444487F00385454541800087E0916
:1038500001020018A4A4A47C007F080404780000DE
:10386000447D4000004080847D00007F102844009B
:103870000000417F4000007C04180478007C0804AC
:10388000047800384444443800FC242424180018E8
:10389000242418FC007C08040408004854545420D4
:1038A00000043F444020003C4040207C001C20405D
:1038B000201C003C4030403C004428102844001CA0
:1038C000A0A0A07C004464544C4414141414141498
:1038D00000000000000000000000000000000000E8
:1038E000000000F80000000000000033300000007D
:1038F00000100C06100C0600000000000000000084
:1039000040C07840C0784000043F04043F040400F5
:10391000007088FC08300000001820FF211E000005
:10392000F008F000E018000000211C031E211E001A
:1039300000F00888700000001E21232419272110A0
:1039400010160E0000000000000000000000000043
:10395000000000E0180402000000000718204000EA
:1039600000020418E00000000040201807000000DA
:10397000404080F0804040000202010F010202003E
:10398000000000F0000000000101011F0101010022
:10399000000000000000000080B070000000000087
:1039A0000000000000000000000101010101010110
:1039B00000000000000000000030300000000000A7
:1039C000000000008060180400601806010000007C
:1039D00000E010080810E000000F102020100F0079
:1039E000001010F8000000000020203F2020000000
:1039F0000070080808887000003028242221300058
:103A000000300888884830000018202020110E005F
:103A10000000C02010F8000000070424243F240008
:103A200000F80888880808000019212020110E00DD
:103A300000E0108888180000000F112020110E00EF
:103A400000380808C83808000000003F00000000E7
:103A50000070880808887000001C222121221C00A8
:103A600000E010080810E0000000312222110F00D1
:103A7000000000C0C0000000000000303000000066
:103A800000000080000000000000806000000000D6
:103A900000008040201008000001020408102000EF
:103AA000404040404040400004040404040404003A
:103AB00000081020408000000020100804020100CF
:103AC000007048080808F0000000003036010000CF
:103AD000C030C828E810E0000718272423140B0082
:103AE0000000C038E0000000203C230202273820FC
:103AF00008F8888888700000203F202020110E00E0
:103B0000C0300808080838000718202020100800D6
:103B100008F808080810E000203F202020100F00BF
:103B200008F88888E8081000203F2020232018008B
:103B300008F88888E8081000203F200003000000F3
:103B4000C03008080838000007182020221E020094
:103B500008F808000008F808203F210101213F2053
:103B6000000808F8080800000020203F202000007E
:103B700000000808F8080800C08080807F0000006E
:103B800008F888C028180800203F200126382000A7
:103B900008F8080000000000203F2020202030000E
:103BA00008F8F800F8F80800203F003F003F200028
:103BB00008F830C00008F808203F200007183F0030
:103BC000E01008080810E0000F10202020100F005F
:103BD00008F808080808F000203F21010101000052
:103BE000E01008080810E0000F18242438504F0097
:103BF00008F8888888887000203F2000030C302057
:103C000000708808080838000038202121221C0094
:103C1000180808F8080818000000203F20000000DD
:103C200008F808000008F808001F202020201F00C6
:103C30000878880000C83808000007380E01000026
:103C4000F80800F80008F800033C0700073C0300F0
:103C5000081868808068180820302C03032C302056
:103C60000838C800C83808000000203F20000000C5
:103C700010080808C838080020382621202018001D
:103C8000000000FE020202000000007F40404000F1
:103C9000000C30C000000000000000010638C00029
:103CA00000020202FE000000004040407F000000D1
:103CB00000000402020204000000000000000000F6
:103CC00000000000000000008080808080808080F4
:103CD00000020204000000000000000000000000DC
:103CE00000008080808000000019242222223F20D2
:103CF00008F8008080000000003F112020110E0015
:103D00000000008080800000000E112020201100A3
:103D1000000000808088F800000E112020103F2055
:103D20000000808080800000001F222222221300D9
:103D3000008080F0888888180020203F2020000024
:103D40000000808080808000006B949494936000D9
:103D500008F8008080800000203F210000203F20E4
:103D600000809898000000000020203F20200000E4
:103D7000000000809898000000C08080807F0000D4
:103D800008F8000080808000203F24022D302000B1
:103D9000000808F8000000000020203F202000005C
:103DA0008080808080808000203F20003F20003F76
:103DB0008080008080800000203F210000203F2084
:103DC0000000808080800000001F202020201F0035
:103DD000808000808000000080FFA12020110E0064
:103DE0000000008080808000000E112020A0FF8055
:103DF000808080008080800020203F212000010002
:103E00000000808080808000003324242424190056
:103E1000008080E0808000000000001F2020000063
:103E20008080000000808000001F202020103F20A4
:103E3000808080000080808000010E300806010034
:103E400080800080008080800F300C030C300F00D9
:103E500000808000808080000020312E0E31200004
:103E6000808080000080808080818E701806010034
:103E700000808080808080000021302C2221300052
:103E800000000000807C020200000000003F404073
:103E900000000000FF00000000000000FF00000024
:103EA0000002027C800000000040403F0000000053
:103EB00000060101020204040000000000000000EE
:103EC00000000000000000000000000000000000F2
:103ED00000000000000000000000000000000000E2
:103EE000080889EA1888000404FC040404FC0000A3
:103EF000020100FF0186402018074080403F00007B
:103F00001010F01F10F00040E05847405060C00013
:103F10004022150816210000FE42424242FE0000E7
:103F2000008060F807000000FF4020100804000037
:103F3000010000FF000402013F4040404040780083
:103F400000040404FF5454545454FF0404040000B7
:103F500011118985939191FD91919385891111009A
:103F600000C808090EE808000000FF10101010003B
:103F7000103017100E0908FF4141414141FF000078
:103F800080808080808080808080808080808000B1
:103F90000000000000000000000000000000000021
:103FA00000000808080808080808080808000000B9
:103FB0001010101010101010101010101010100011
:103FC000000484848484848484848484840400003D
:103FD0002020202020202020202020202020200001
:103FE00000FC040404FC040404FC040404FC0000BD
:103FF000007F28242320202020212222227F00004D
:104000000002424242C27E42424242C202020000DA
:1040100040404040784740404040407F4040400062
:1040200020202020202021222C20202020202000A1
:10403000004020100C030000000102041860000082
:10404000808080808040FF40404020202020000071
:104050000000000000003F40404040404078000029
:104060000000000000FC0000007E80000000000056
:1040700000806018070000000000030C3040800042
:104080000010101010FF10101010F00000000000C1
:10409000804020180700000000003F4040407800AA
:1040A00040404040404040FF404040404040400091
:1040B00000000000000000FF000000000000000001
:1040C000003E22E2223E00FE2222222222E20200C2
:1040D000203F201F1111007F4444444444474000C6
:1040E000040404F484D4A5A6A4D484F40404040031
:1040F00000FE0202123A1613121A3242827E0000A9
:10410000004042445840C0FFC04050484640000074
:1041100020201008040300FF0003040810202000E2
:1041200000080CE67C6C6464786E666CEC04040039
:104130000010505755351D151515FD151710100099
:104140000040C48C0800101010FEFE10101000007B
:10415000004070180C0161594F43414939714100C9
:1041600000028282828282FE828282828202000039
:10417000404040404040407F404040404040400040
:104180002030AC631000FE485040FF405048000013
:104190002267221212007F4442417F414244400084
:1041A000000004F4949494FC929292F302000000B4
:1041B00000FE02123212121F12121A3282FE000088
:1041C000740000208400002094000020A40000203F
:1041D000B40000200000010203040005405C000060
:1041E000A05C0400C06C0800805C0400E03F1E007E
:1041F000E07D1E00070400091E080540082609107E
:1042000040085608054008261D040008BE1D04008D
:1042100008BED8BC07A9022570889B8840100800FA
:104220000A001600010006000100020087008D0050
:104230002D001A3152001A339A001A351D011A370F
:104240006B003B31BE003B335E013B3596023B3792
:10425000000099599959EB518F421E45142E008048
:10426000EB51F5283333E13A703DE13AC235852B05
:10427000C2353333C235C235AE47E13A5138A33087
:1042800051380000A4420008000000208401000012
:10429000280100083443000884010020B40600000F
:1042A00084010008012403201027EF803FCDCC1C9F
:1042B0004114350AD7A33B2A400C390444401C461C
:1042C0007F3CE781BDBDBD041AFF102901E91069DB
:1042D00014A910290132FF2AFF016A0F011808FEF4
:1042E000FCF8F0F1F3F7137D7F7F7FFF206AF00188
:1042F000191818083F1F0F0F1F3F7F2943F0F125A2
:104300000202080222015321041341885808CADE20
:1043100057415645210C1E564557411023991B0203
:1043200040234BA24A6D31400901020304060708ED
:044330000900000080
:04000005080000ED02
:00000001FF
