:020000040800F2
:1000000008090020C9010008050900082F07000899
:1000100001090008F1030008F910000800000000C1
:10002000000000000000000000000000170F0008A2
:1000300041040008000000000D0D0008FD0F00083D
:10004000DF010008DF010008DF010008DF01000810
:10005000DF010008DF010008DF010008DF01000800
:10006000DF010008DF010008DF010008DF010008F0
:10007000DF010008DF010008DF010008DF010008E0
:10008000DF010008DF010008DF010008DF010008D0
:10009000DF010008DF010008DF010008DF010008C0
:1000A000DF010008DF010008DF010008DF010008B0
:1000B000DF010008DF010008DF010008DF010008A0
:1000C000DF010008DF010008DF010008DF01000890
:1000D000DF0100080D1000083D100008DF010008D6
:1000E000DF010008DF010008DF01000800F002F86E
:1000F00000F05AF80AA090E8000C82448344AAF168
:100100000107DA4501D100F04FF8AFF2090EBAE865
:100110000F0013F0010F18BFFB1A43F0010318473B
:10012000782E0000982E00000A444FF0000C10F8C2
:10013000013B13F0070408BF10F8014B1D1108BF65
:1001400010F8015B641E05D010F8016B641E01F805
:10015000016BF9D113F0080F1EBF10F8014BAD1C55
:100160000C1B09D16D1E58BF01F801CBFAD505E073
:1001700014F8016B01F8016B6D1EF9D59142D6D3CD
:10018000704700000023002400250026103A28BFF5
:1001900078C1FBD8520728BF30C148BF0B607047F9
:1001A0001FB51FBD10B510BD00F05BF81146FFF77D
:1001B000F7FF01F0C7FC00F079F803B4FFF7F2FF96
:1001C00003BC01F06AF8000008480047FEE7FEE7BC
:1001D000FEE7FEE7FEE7FEE7FEE7FEE7FEE7FEE7F7
:1001E00003480449044A054B70470000ED0000082D
:1001F0000803002008090020080500200805002049
:10020000704740EA010310B59B070FD1042A0DD3B4
:1002100010C808C9121F9C42F8D020BA19BA8842E7
:1002200001D9012010BD4FF0FF3010BD1AB1D30726
:1002300003D0521C07E0002010BD10F8013B11F85C
:10024000014B1B1B07D110F8013B11F8014B1B1B85
:1002500001D1921EF1D1184610BD7047704770470A
:100260007047754600F02CF8AE46050069465346C7
:1002700020F00700854618B020B5FFF7B1FFBDE8B4
:1002800020404FF000064FF000074FF000084FF0FD
:10029000000B21F00701AC46ACE8C009ACE8C0098E
:1002A000ACE8C009ACE8C0098D46704710B50446FB
:1002B000AFF300802046BDE81040FFF77EBF00008E
:1002C00000487047A80200204548806940F00400BB
:1002D000434988614348006820F0F00041490860C4
:1002E0003F48806940F400703D4988610846C06815
:1002F00040F40070C8600846C06820F40070C86010
:100300000846406820F4404048600846406840F491
:100310000040486034480068344908403249086069
:100320000846006808600846006820F4807008608D
:10033000081D006820F00200091D086008460068DA
:1003400020F4602008600846006840F460200860DF
:100350000846006840F4801008600846006820F4F1
:100360000060086020482830006820F470001E49B2
:10037000283108600846006808601B480C30006897
:1003800020F0380018490C3108600846006840F039
:10039000380008601448001D006840F00100124950
:1003A000091D08600846006840F00800086000BFAA
:1003B0000D48001D006800F008000028F8D10A4828
:1003C000001D006840F004000749091D086000BFD7
:1003D0000548001D006800F004000028F8D17047AF
:1003E000001002400008014004240140FFFFF0001B
:1003F00000BFFEE710B501F007FC01F059FC01F069
:1004000082FC00BF012001F0EFF8401C0028F9D069
:1004100001F074FC094800F0AFFF44F24C0001F019
:1004200024FA44F24C0001F05FFA962001F00BFA36
:1004300040F68C2001F022FA10BD0000B801002027
:100440007047000070B504460D4605F10800C0B2C3
:100450005A4948710871084600F08EFF58480078E4
:100460005849887000220C2001F0F3FA00210C207A
:1004700001F002FB022001F03FFA00BF00210F2033
:1004800001F068F950490860504908400028F5D04B
:100490004B480078401C4A4908704B48008800F4DB
:1004A000804000287ED04FF4814200210F2001F0CF
:1004B00084FA0021102001F04DF900F07F0044493A
:1004C000086008460068182806D80846008881B2E7
:1004D0000022404801F092F900203E4988700A222B
:1004E0003D493C48FFF78DFE002865D13948017B26
:1004F000C07A01EB0020208001F00DFB374A03C2D7
:1005000001F0F3FA364A03C23548D0E90010354B02
:10051000C91840F10000020642EA1126304601F0F7
:100520008AF926F001000021090241EA1061020265
:1005300044F24C03D21841F100012B48C0E90021DC
:1005400026480CC8294801F0C3FA25480CC827489A
:10055000001D01F0BDFA24480CC82448083001F001
:10056000B7FA1748007821490A3988700022182004
:1005700001F06FFA0021182001F07EFA012001F04D
:10058000BBF900BF00210F2001F0E4F800F080006B
:100590000028F7D0802200210F2001F00EFA084831
:1005A000007800E003E0401C0549087004E0104AB0
:1005B00000210F2001F001FA70BD0000B8010020F9
:1005C000F6010020C3010020F801002000D02724FC
:1005D0001802002052020020CF010020000200205B
:1005E0000802002000001C0C10020020E80100207E
:1005F00000902724014600200022044B1B6803EAD8
:1006000001020AB1012000E000207047000401400F
:100610002DE9F04102460025002600200023002499
:10062000002791F803C00CF00F0591F803C00CF0FF
:10063000100CBCF1000F03D091F802C04CEA050584
:1006400091F800C0BCF1000F31D0146800202BE0FD
:100650004FF0010C0CFA00F3B1F800C00CEA0306ED
:100660009E4220D183004FF00F0C0CFA03F7BC43DD
:1006700005FA03FC4CEA040491F803C0BCF1280F0E
:1006800006D14FF0010C0CFA00FCC2F814C00AE0CD
:1006900091F803C0BCF1480F05D14FF0010C0CFAE2
:1006A00000FCC2F810C0401C0828D1D31460B1F877
:1006B00000C0BCF1FF0F34DD546800202EE000F1D3
:1006C000080C4FF0010808FA0CF3B1F800C00CEA6E
:1006D00003069E4221D183004FF00F0C0CFA03F762
:1006E000BC4305FA03FC4CEA040491F803C0BCF1D6
:1006F000280F05D100F1080C08FA0CF8C2F8148094
:1007000091F803C0BCF1480F07D100F1080C4FF07D
:10071000010808FA0CF8C2F81080401C0828CED353
:100720005460BDE8F081416170470161704700BFCE
:10073000FEE700001848806940F00400164988610F
:100740001648006820F0F000144908600846006868
:1007500040F08000086011480C30006840F0020052
:100760000E490C3108600C48806940F010000A49BD
:1007700088610B484068C0F3130009494860084687
:10078000406808490843064948600846C06840F484
:100790006040C8607047000000100240000801403F
:1007A00000100140000080880C48806940F008007B
:1007B0000A4988610A48006820F0706008490860AA
:1007C0000846006840F0407008600548083000683E
:1007D00040F4804002490831086070470010024030
:1007E000040C014000B5002015490861C8601420C0
:1007F000486100208861C8610846006840F0010037
:100800000860084640680F4908400D49486008469E
:1008100000680D4908400A4908600846006820F44D
:10082000802008600846406820F4FE0048600020F0
:10083000886000214FF0006000F058F800BD000013
:10084000001002400000FFF8FFFFF6FE2DE9F04126
:100850000746884614461D46284600F033F8C5F181
:10086000040007FA00F60F20284100EA08000643BA
:1008700006F00F06E21704EBD2625211920002F169
:10088000E022D2F800212146E31704EBD3635B1189
:10089000A4EB431C012303FA0CF31A432046E3178D
:1008A00004EBD3635B119B0003F1E023C3F8002149
:1008B0000348005D40EA061001490855BDE8F08193
:1008C00000E400E00146072323EA01021202054B7F
:1008D00018684FF6FF031840034B18431043014BB1
:1008E000186070470CED00E00000FA05024A0A406B
:1008F0000243024B1A60704780FFFF1F08ED00E0C3
:1009000000BFFEE77047000010B5002807DA0A07AD
:10091000140E054A00F00F031B1FD45403E00A070E
:10092000130E024A135410BD18ED00E000E400E07D
:1009300070B50646002415E004F1B001C8B200F01D
:1009400093F9012000F090F9102000F08DF90025B6
:1009500004E0304600F0B0F9681CC5B2802DF8DB29
:10096000601CC4B2082CE7DB70BD30B50246052020
:1009700000240C540EE0441EE0B20A2492FBF4F56D
:1009800004FB1524E3B20A2492FBF4F4A2B203F1AF
:1009900030040C540028EED130BD000010B54248A0
:1009A000806940F00800404988614048006840493B
:1009B00008403E490860084600683E4908433B49F4
:1009C00008603A480830006840F4705037490831F0
:1009D00008600846006840F400400860002036497E
:1009E00008603649C1F8AC01322000F0A7FC0120B4
:1009F0003149091F0860AE2000F036F9002000F0F0
:100A000033F9102000F030F9402000F02DF981205A
:100A100000F02AF9CF2000F027F9A12000F024F9F6
:100A2000C82000F021F9A62000F01EF9A82000F04F
:100A30001BF93F2000F018F9D32000F015F9002031
:100A400000F012F9D52000F00FF9802000F00CF929
:100A5000D92000F009F9F12000F006F9DA2000F0C1
:100A600003F9122000F000F9DB2000F0FDF840202F
:100A700000F0FAF8202000F0F7F8022000F0F4F877
:100A80008D2000F0F1F8142000F0EEF8A42000F022
:100A9000EBF8A62000F0E8F8AF2000F0E5F8002021
:100AA000FFF746FF10BD000000100240040C01409B
:100AB000FF00000F00333330B0812142008021421B
:100AC0002DE9FF5F05468B4617460021384601F0A9
:100AD000A5FB07D287F0004735A25946284600F00B
:100AE0006FF804E033A25946284600F069F805F192
:100AF0000800C5B2384601F05DFB1FFA80F92E49A7
:100B0000384601F0BFFB0746384601F053FB64212D
:100B1000B0FBF1F201FB120AA84602A94846FFF712
:100B200024FF69465046FFF720FF03AE002408E08B
:100B300002A8005D302802D002A8061903E0601C5C
:100B4000C4B2042CF4DB00BF08E032465946284604
:100B500000F036F805F10800C5B2761C30780028A0
:100B6000F3D116A25946284600F02AF805F10800EC
:100B7000C5B20DF1030608E032465946284600F09A
:100B80001FF805F10800C5B2761C30780028F3D1B3
:100B90002C4607E007A25946204600F011F804F160
:100BA0000800C4B208F140008442F3DBBDE8FF9FB7
:100BB0002D000000200000000000C8422E000000B0
:100BC0002DE9F0410746884615460026002430E00E
:100BD00028782038C6B2782F04DD002708F10100FC
:100BE00000F0FF084146384600F02AF8002407E0EC
:100BF00004EB0611114A505C00F05EF8601CC4B2B0
:100C0000082CF5DB08F10100C1B2384600F018F8F5
:100C1000002408E004EB06110831084A505C00F09B
:100C20004BF8601CC4B2082CF4DB07F10800C7B213
:100C30006D1C28780028CBD1BDE8F081442700083E
:100C400030B504460D4605F1B001C8B200F00CF80D
:100C5000102141EA141000F007F804F00F0141F0F0
:100C6000010000F001F830BD08210022104B1A608D
:100C7000104BC3F8B42115E000F0800222B101222C
:100C80000B4B14331A6003E00022094B14331A6033
:100C90000122074B0C331A600022064BC3F8B42123
:100CA0004206100E0A1EA1F10103D9B2E4D1704729
:100CB000A88121420080214208210122114B1A60A3
:100CC0000022114BC3F8B42115E000F0800222B1DC
:100CD00001220C4B14331A6003E00022094B143339
:100CE0001A600122074B0C331A600022064BC3F82E
:100CF000B4214206100E0A1EA1F10103D9B2E4D1BB
:100D000070470000A8812142008021427047000006
:100D100029B1064A12690243044B1A6104E0034AEE
:100D200012698243014B1A617047000000100240B3
:100D300029B1064A92690243044B9A6104E0034ACE
:100D400092698243014B9A61704700000010024093
:100D500029B1064AD2680243044BDA6004E0034A30
:100D6000D2688243014BDA607047000000100240F5
:100D700001460020044A10884FF6C772104008430D
:100D8000014A1080704700000030014021B1028804
:100D900042F04002028004E002884FF6BF731A401E
:100DA0000280704700B587B0294800F055F8002050
:100DB000ADF808004FF48270ADF80A000020ADF8DD
:100DC0000C00ADF80E00ADF810004FF40070ADF857
:100DD00012001020ADF814000020ADF81600072016
:100DE000ADF8180002A91A4800F06BF8A020ADF881
:100DF000040018208DF8070003208DF8060001A9D3
:100E00001448FFF705FC4020ADF8040048208DF899
:100E1000070001A90F48FFF7FBFB1020ADF8040005
:100E20008DF8070003208DF8060001A90948FFF797
:100E3000EFFB0021064800F062F801210448FFF7AB
:100E4000A5FF10210348FFF770FC002007B000BD8C
:100E5000003001400008014010B5044611488442AA
:100E600008D101218014FFF773FF0021A014FFF7C0
:100E70006FFF16E00C48844208D101210014FFF7EF
:100E800047FF00212014FFF743FF0AE00748844290
:100E900007D10121C013FFF73BFF0021E013FFF74B
:100EA00037FF10BD0030014000380040003C0040DA
:100EB0000246002013890B400BB1012000E0002006
:100EC000704710B50022028802F441520B884C880A
:100ED00023438C882343CC8823430C8923434C89A8
:100EE00023438C892343CC8923431A430280838B79
:100EF0004FF2FF74234083830B8A038210BD21B11C
:100F0000828842F00402828004E082884FF6FB73FC
:100F10001A4082807047704730B504460025FFF7BD
:100F200061FC1F48006840F480301D49086000BF24
:100F30001B480068400C0028FAD04FF48060184924
:100F40004860A01EC4B20846406840EA8440486039
:100F50000846406840F4803048601248006840F01D
:100F60003200104908600E48006840F080700C495B
:100F7000086000BF0A480068400E0028FAD0084800
:100F8000406840F002000649486005E004484068B7
:100F9000C0F3870505F00305022DF7D130BD000031
:100FA000001002400020024010B5134800684FF4C2
:100FB0007A71B0FBF1F4B4F1807F01D3012011E02C
:100FC00024F07F40401E4FF0E02148610F214FF098
:100FD000FF30FFF799FC00204FF0E02188610720E7
:100FE0000861002008B100BFFEE70521881FFFF758
:100FF0008BFC002010BD00001C020020024800688D
:10100000401C0149086070473002002008480088F1
:1010100000F0200058B10648001D0088054908600E
:1010200008460068312802D1012003490860704752
:10103000003801402C010020B000002010B52548E8
:10104000008800F02000002842D0234A04212E20EE
:10105000FFF736FD2148007850B921480078401C40
:10106000C0B21F4908700A2802DD01201B49087020
:101070001848001D0088C4B21A48007868B91A4898
:101080000078552809D119480078552805D1012044
:101090001449087000201649087012480078012889
:1010A0000FD1144812490978445411480078401C63
:1010B0000F49087008460078082802D10020094925
:1010C000087009480078094908700748047000BF93
:1010D00010BD0000004400400000C842CB000020CA
:1010E00033010020CA00002031010020320100201D
:1010F000300100204802002000BFFEE738B504465A
:101100006D2000906B46012240F606012E2000F073
:101110006CFC3CB140F2076241F606012E2000F063
:1011200039FC06E041F2076241F606012E2000F08C
:1011300031FC38BD38B504466B460222002136200A
:1011400000F02AFB0E2C57D2DFE804F011071A56E4
:10115000565656233256563F464D00208DF8000015
:101160009DF8010000F0FE008DF8010045E09DF8BB
:10117000000000F0FC0040F001008DF800003CE0B1
:101180009DF8000000F0FC0040F002008DF8000027
:1011900033E09DF8000000F0B30040F048008DF807
:1011A00000009DF8010040F080008DF8010024E06F
:1011B0009DF8000000F0B3008DF800009DF80100DC
:1011C00000F07F008DF8010017E09DF8010040F06D
:1011D00002008DF8010010E09DF8010000F0FD0014
:1011E0008DF8010009E09DF8000000F0CF0040F00C
:1011F00020008DF8000000E000BF00BF6B46012218
:101200000021362000F0F1FB0DF10103012211460F
:10121000362000F0EAFB38BD08B503208DF8010048
:1012200001208DF800006B4602220021362000F0DC
:10123000DCFB4FF4004206212D2000F0ABFB012027
:1012400000F02DF80120FFF775FF08BD38B5044602
:10125000200A8DF80100E0B28DF800006B460222F2
:1012600004212D2000F0C1FB03208DF800006B4607
:10127000012206212D2000F0B8FB00208DF800008F
:101280006B46012206212D2000F0AFFB0A212D2004
:1012900000F060FA0546284638BD00BF704770B5BB
:1012A000044600F0BFFC051900BF00F0BBFC401B6A
:1012B0000028FADD70BD014651B11720012282409D
:1012C00043099B0003F1E023C3F8002100BF00BFE6
:1012D0007047000010B51720FFF78CF9044644B1A1
:1012E000172001218140044A430942F8231000BF1E
:1012F00000BF204610BD000080E100E04FF0E0217B
:10130000096921F004014FF0E0221161C21700EBDE
:101310005272C2F3C702074B1A701946097801EBE3
:101320004102C2EBC1114FF6FF7202EAC101024A4B
:1013300011807047200100202201002001460D4A43
:1013400012884A434FF0E0235A6100229A61012239
:101350001A6100BF4FF0E022106900F001021AB1DB
:1013600000F48032002AF5D000224FF0E0231A6109
:101370009A617047220100202DE9F84F04464FF092
:101380000009CA4625786079824931F81080607872
:10139000401E8149C6B20863042D01D0072D01D13A
:1013A000012000E00020834620787B490873E07923
:1013B00038B90846806940F4800088614FEAE8083F
:1013C00005E07548806920F4800073498861207ABF
:1013D0007149487308468069217A4FF4403202EA25
:1013E000014108436C498861084600218269042054
:1013F00000F0E3FA424642F604012E2000F0CAFA59
:101400003046FFF77BFE6548405D00EB8000644995
:101410004318052207212B2000F0E7FA614800EB72
:101420000B0301220B21282000F0DFFA5B48405D0E
:101430005D4951F820200C21282000F0BEFAE07907
:101440005A4901EB8000A17930F8112002212720B0
:1014500000F0A0FA564830F816200421272000F0AA
:1014600099FAE07928B964220621272000F092FA3F
:101470001EE0A07804280DD1102000901022062133
:10148000272000F087FA6B4601222621272000F052
:10149000ACFA0DE02820009020220621272000F041
:1014A00079FA6B4601222621272000F09EFA00BF20
:1014B000404800EB0610E17850F821200821272051
:1014C00000F07BFAB4F8090018B941F24100A4F821
:1014D0000900B4F809202021272000F05BFA3648E3
:1014E0000C210268232000F068FA3348001D30F810
:1014F00016200421232000F04DFAA07958B1E0799C
:101500002E49431801220021212000F06EFA4FF0ED
:1015100003094FF0010A05F00F00F02101EA05115F
:10152000084361784FF4402202EA81410843910068
:1015300001EA095108434FF4003101EA4A410843E6
:1015400021794FF0F86202EA815108436179520132
:1015500002EAC16140EA01073A4600211F2000F07B
:101560002CFAA0786178084300040B49086108460A
:101570000069E1794FF4004242EA413108430649EB
:101580000861084600210269082000F016FA0020D0
:10159000BDE8F88F642F00086C020020E82E0008D8
:1015A000082F0008262F0008F02E0008342F00080E
:1015B000402F0008442F0008282F0008302F000873
:1015C00070B505460421362000F0C4F8044615B174
:1015D00044F4006401E024F400642246042136202F
:1015E00000F0EBF970BD00002DE9FC410546042038
:1015F0000190002600270020494948750863002112
:10160000474880F825100020454981F82C00888340
:101610004863886300F0BAF84149086008460068EA
:101620004049884202D08817BDE8FC810020FFF7BE
:1016300081FD4FF01F3200211E2000F0BEF901ABEA
:1016400001220021242000F0D0F91E20FFF7FEFD2A
:1016500086B2300A324988730420FFF7F7FD074647
:10166000F8B270B1022000906B46012212212D20A9
:1016700000F0BBF92A48808B40F4805028498883C9
:1016800000BF0620FFF7E2FD254948600720FFF76D
:10169000DDFD2349886006F01F0008750846007DBF
:1016A00008B9102008751E49087D00F0F7F905F00B
:1016B000010040B1FFF7B0FD1948808B40F4006095
:1016C000174988830DE00521362000F02DF80446E7
:1016D0004FF6FF50044022460521362000F05AF90B
:1016E00000BF0120FFF726FD0021042000F032F8A2
:1016F0000B4988610021262000F02CF8044644F4B0
:10170000A03444F4A02422460021262000F055F9FC
:1017100000222621362000F03DF9002084E7000059
:101720006C0200203001CADEF8B504460D464FF6C3
:10173000FF76A9B2A0B26B46022200F02DF8074650
:1017400037B99DF800009DF8011000EB012086B22A
:101750003046F8BD2DE9F84305460E464FF0FF37F9
:10176000B1B2A8B26B46042200F016F88046B8F178
:10177000000F08D1032404E01DF8040000EB072744
:10178000641E002CF8DA3846BDE8F88310B5002155
:101790000846FFF7DFFF10BD2DE9F84306460C466B
:1017A0001746984600252CB9F2B228466D1C0DF854
:1017B00000201BE0F0B240F0400228466D1C0DF8FE
:1017C00000207F2C05DCE2B228466D1C0DF80020BD
:1017D0000CE0E0B240F0800228466D1C0DF80020BD
:1017E000C4F3C71228466D1C0DF80020A8B243466A
:1017F0003A46694600F01CFABDE8F88370B5044625
:101800000D46164623462A4631461120FFF7C4FFEF
:1018100070BD10B504462346052200211520FFF7B0
:10182000BBFF10BD10B5044623460522002117203A
:10183000FFF7B2FF10BD10B50446224601210A2071
:1018400000F0BBF810BD70B5054600211A20FFF767
:1018500081FF04466FF31304C5F3130004432246CB
:1018600000211A2000F0A9F870BD10B504462246E8
:1018700041F604012E2000F08DF810BD38B5044665
:101880006B46012203210420FFF786FF002C16DDA2
:10189000224600210C2000F07DF89DF8000040F069
:1018A000100000900F48806940F080500D49886119
:1018B0006B4601220321042000F097F810E09DF808
:1018C000000020F0100000900648806920F0805051
:1018D000044988616B4601220321042000F085F849
:1018E00038BD00006C02002010B5044622460021DD
:1018F000182000F04FF810BDF8B504460025002070
:101900000090002604F0020058B1802000906B4641
:10191000012200210D2000F068F801201C4981F807
:101920002C0004F0010028B39DF8000040F00600F0
:1019300000906B46012200210D2000F056F8032193
:101940000F20FFF7F1FE064606F4816008B9002576
:101950001BE0402000906B46012200210D2000F08A
:1019600044F80020FFF72CFE0020094981F82C00E4
:10197000451E0AE09DF8000040F0020000906B4612
:10198000012200210D2000F030F82846F8BD0000AB
:101990006C020020F8B505460E461446E0B28DF8FC
:1019A000000020128DF80100B1B2A8B26B460222ED
:1019B00000F01BF807463846F8BD2DE9F843064607
:1019C0000F461446002504E0E0B20DF80500240A95
:1019D0006D1C042DF8DBB9B2B0B26B46042200F0E6
:1019E00004F880464046BDE8F8832DE9F8430646F2
:1019F0000C461746984600253CB9F0B240F08002EC
:101A000028466D1C0DF800201BE0F0B240F0C0022B
:101A100028466D1C0DF800207F2C05DCE2B228461C
:101A20006D1C0DF800200CE0E0B240F0800228466A
:101A30006D1C0DF80020C4F3C71228466D1C0DF86C
:101A40000020A8B243463A46694600F045FABDE890
:101A5000F88370B504460E4615462819B0F5806F18
:101A600002DD4FF0FF3070BDA21E3346294609202B
:101A7000FFF7BBFF0020F6E770B504460D460648A9
:101A80000069204340EA8556324600210820FFF7CE
:101A900094FF002070BD00006C02002038B50446A1
:101AA0006B4601220E212B20FFF776FE9DF80000E9
:101AB00020F01F00009004F01F009DF80010084364
:101AC00000906B4601220E212B20FFF78EFF38BDC0
:101AD00070B50146002005E00A54140A44EA036286
:101AE0001B0A401C0428F7DB70BD7CB500210C46A6
:101AF0000D466846FFF78DFE042607E0280240EAFF
:101B0000146524021DF806000443761E002EF5DA43
:101B1000204629467CBD7CB500210C460D46684612
:101B2000FFF780FE042607E0280240EA146524023D
:101B30001DF806000443761E002EF5DA20462946DD
:101B40007CBD000000BF0920FFF7E6F94820FFF741
:101B5000D5FB4FF4E131482000F050F94FF4E1316A
:101B6000482000F0D5F8FEF71FFEFEF7ADFBFEF7AC
:101B700015FFFEF7DFFDFEF73DFC6420FFF7DEFBFF
:101B80001A48806940F01000184988611848406878
:101B900020F47000164948600846406840F4801000
:101BA00048600846C06800F40050C8600846C06835
:101BB00020F40050C8606420FFF7C0FB01200D49ED
:101BC00008600D49C1F8B4014FF49670FFF7B6FBF9
:101BD00000200A49086007E003210948FEF732FCAB
:101BE00004210848FEF72EFCF6E700000010024032
:101BF00000100140B881214200002242B40122427B
:101C0000020000200000002010B501210803FFF7AA
:101C10008FF8FFF7C9F9FFF7C5F80A20FFF73FFB78
:101C200010BD00000148006870470000300200202D
:101C30002DE9F04706460F4690461D460024FFF763
:101C400049FB814610201849086000BF0DE0385D4F
:101C50001649888100BF01211448FFF729F900289F
:101C6000F9D0124880892870641CB442EFDB00244C
:101C70000DE000200D49888100BF0C48008900F06C
:101C800001000028F9D0094880892855641C444582
:101C9000EFD310200449091F08604846FFF70BFBEB
:101CA0000020BDE8F087000014080140003001402A
:101CB00008B50120ADF8000010208DF803000320C6
:101CC0008DF8020069460C48FEF7A2FC01210A4883
:101CD000FEF729FD0120ADF8000000208DF803007B
:101CE00003208DF8020069460348FEF791FC0220AC
:101CF000FFF7D5FA08BD00000008014000B5082034
:101D0000FFF736F800BD00B52020FFF731F800BD21
:101D10002DE9F05F05460E46300100F06BFA814672
:101D2000324905FB01F000F065FA8246494600F0B1
:101D30007FF90746384600F03DFA84B2204600F0AD
:101D400059FA8346394600F069FB82464FF08341D9
:101D500000F098FA814600F02DFA80464FF6FF70A9
:101D600000EA041404EB080084B22148806940F0C2
:101D700004001F4988610846C06940F40030C8610A
:101D80001C48006820F47F401A4908600846006833
:101D900040F40B40086017480C30006840F0040025
:101DA00014490C3108601248006940F400301049B1
:101DB00008610846006920F4003008610E4804807C
:101DC000001D008842F20C0108430B49091D0880E0
:101DD0000846008840F02000088003232622194688
:101DE0001846FEF733FDBDE8F09F000040420F00AB
:101DF0000010024000080140084400402DE9F05F57
:101E000005460E46300100F0F5F981462E4905FBE6
:101E100001F000F0EFF98246494600F009F9074663
:101E2000384600F0C7F984B2204600F0E3F9834653
:101E3000394600F0F3FA82464FF0834100F022FA6F
:101E4000814600F0B7F980464FF6FF7000EA0414AF
:101E500004EB080084B21D48806940F004001B496F
:101E600088610846806940F48040886118480068AD
:101E700020F47F60164908600846006840F40B6053
:101E800008601248C06840F480401049C8600846A5
:101E9000C06820F48040C8600E480480001D00889F
:101EA00042F20C0108430B49091D088008460088CE
:101EB00040F0200008800223252201210846FEF779
:101EC000C5FCBDE8F09F000040420F00001002403A
:101ED00004080140083801402DE9F04705460E4648
:101EE000174698460024FFF7F5F981461020174958
:101EF000086000BF0CE0305D1549888100BF1448C0
:101F0000008900F001000028F9D011488089641C84
:101F1000AC42F0DB00240DE018F804000C49888185
:101F200000BF0B48008900F001000028F9D00848E4
:101F30008089641CBC42EFD310200449091F08604B
:101F40004846FFF7B8F90020BDE8F08714080140C3
:101F50000030014090EA010F48BF81F0004100F1DC
:101F60006E82421A3CBF801A89184FEAD0524FF055
:101F70007F4C1CEA410FA2EBD15318BF9CEA026FC1
:101F800000F03B804FF0004C4CEA00204CEA01216D
:101F900021FA03FC10EB0C0C1ED202F1FF325FEAB7
:101FA0001C2040EBC25038BF70471CF07F0F4FEA37
:101FB000400C18BFBCF17F4F38BF7047C3F12003FE
:101FC000994008BF20F00100BCF17F4F38BF704737
:101FD000A0F1C04000F01DBA4FEA3C00000A40EBFF
:101FE000C25028BF1CF0FF0F4FEA400CE6D018BFCC
:101FF000BCF17F4F38BF7047EAE79CEA026F05D01B
:1020000010EA5C0F08BF00F00040704710B500F008
:10201000BAF900BF64FBBE3E401058BFC0F140405B
:10202000491058BFC1F140418142EFF30080704731
:102030004FF47F0C1CEAD0121EBF1CEAD11392EAA7
:102040000C0F93EA0C0F00F0858090EA010F48BF57
:1020500042F4807240F4000C41F400002CF07F4107
:1020600020F07F4000B58142A2EB03020FF2081C72
:10207000ACEB504EC0F100009EF800E04FEA4E0E6F
:1020800000FB0EFC38BF49004FEA2C1C02F5FA0297
:102090000CFB0EF34FEACE1E4FEA112C4FEAC12182
:1020A0000EEB635E42EB22420EFB0CFC4FEA1C532C
:1020B00000FB03114FEA112C4FEA01310EFB0CFC1F
:1020C0004FEADC4C00FB0C11C14228BF09184CEB55
:1020D00003335DF804EB10EB410143EBC250B2F562
:1020E0007C0F38BF704729D512F0F00F1CBF00F1EC
:1020F000C04000F00040704700818283848586875D
:1021000088898B8C8D8E8F919293959697999A9CB6
:102110009D9FA0A2A3A5A7A8AAACAEB0B2B3B5B725
:10212000B9BCBEC0C2C5C7C9CCCED1D4D7D9DCDFFB
:10213000E2E6E9ECF0F3F7FAFE0000004FEA400CAB
:102140000CF1807CBCF17E4F28BF7047B0F1C040DD
:1021500000F05FB990EA010F0CEAD11348BF42F4D6
:102160008072624538BF634507D213F47F0F16D0E3
:1021700080EA010000F00040704710B500F003F95C
:10218000097EFC3E00F005B880EA010000F0004046
:10219000704780EA010000F0004000F03AB912F404
:1021A0007F0F04BF0248704780EA010000F031B998
:1021B0000000C07FC10DD1F19E0206DB4FEA002373
:1021C00043F0004323FA02F07047004207D54FEA7C
:1021D0004001B1F1FE4F02D24FF00000704710B540
:1021E00000F0D1F849922480002070476FEA200067
:1021F00070470000B0FA80F310FA03F2C3F19D03B8
:102200000AD0D90501EB1220530638BF704700F100
:10221000010008BF20F001007047000050EA010CE7
:1022200000F113801CF5000F58BFBCF5000F01D45E
:102230008842704707D710F5000F58BF11F5000FFF
:1022400015D488427047894270471CF5000F04D5A9
:10225000BCF5000FF7D5814270474FF0807C1CEB36
:10226000400F38BF1CEB410F01D28142704710B5BF
:1022700000F089F8922449004FF000504FF080514F
:10228000FFF7CABE4FF47F0C1CEAD0121EBF1CEA37
:10229000D11392EA0C0F93EA0C0F00F0478090EAFA
:1022A000010F48BF42F480724FF0004C4CEA00200E
:1022B0004CEA012102EB0302A0FB0113A2F500028C
:1022C000002918BF43F001035B0028BF4FEA330326
:1022D00042EB22425FEA132C4CEBC2502EBFBCEB08
:1022E000436FB2F57C0F70474FEA036CBCF1004FAF
:1022F00008BF20F00100B2F57C0F38BF70470BD546
:1023000082F0FF0212F5803FC8BF704700F1C04065
:10231000D8BF00F00040704700F5000C5FEA4C0C9D
:1023200048BF7047B0F1C04000F073B890EA010FA9
:102330000CEAD11348BF42F48072624538BF63454E
:1023400004D280EA010000F00040704710B500F0B0
:102350001AF800BF8900013E00F007B800F009B884
:102360005FEA410C5FEA1C6C08D080EA010000F0D3
:1023700050B85FEA400C5FEA1C6CF6D14FF00040A9
:10238000A0F5800070470EF1020E2EF0030E5EF8ED
:10239000044B244204D44FEA4102B2F17F4F11D8DA
:1023A0004FEA4003B3F17F4F0CD80ED14FEAD07CF7
:1023B000B2F17F4F0CEB4C0C0CF1020C08BF4CEB54
:1023C000D17C04E04FF0080C01E04FEAD17C0CEB2B
:1023D0004C0324FA03F404F00704B4F1040C06D20D
:1023E0000EEB840CBDE810404CF0010C6047DFE8B8
:1023F0000CF0070802024FF00040A0F5800010BD6D
:102400000846420018BFD2F1807288BF00F0004039
:1024100010BDFF2141EAD050C005704780F0004058
:1024200090EA010F7FF59DAD81F0004100F007B803
:1024300090EA010F48BF81F000413FF592AD421A8A
:1024400004D882F00042A0EB020011444FEAD052BF
:102450004FF07F4C1CEA410FA2EBD15318BF9CEA0E
:10246000026F4AD04FF0004C4CEA00204CEA0121A8
:1024700021FA03FCB0EB0C0C0FD412F0FE0F36D097
:102480005FEA4C001DD5001240EBC25038BF7047C8
:102490001CF03F0F18BF70470BE0A2F101025FEA8A
:1024A0001C2040EBC25038BF70471CF07F0F18BF94
:1024B0007047C3F12003994014BF401E20F0010073
:1024C000704780084FEA122308BF7047B0FA80FCBB
:1024D000A2EB0C02CCF1280C60FA0CF093EA122F5C
:1024E00004BF00EBC25070474FEAC3707047130A35
:1024F0005FEADC1008BF7047F6E79CEA026F04D081
:1025000010EA5C0F08BF0020704710B5FFF73BFFD3
:1025100040DFF63E81F00040704700000000000000
:1025200000000000002F000000000700070000145A
:102530007F147F1400242A7F2A1200626408132368
:1025400000364955225000000503000000001C22FF
:102550004100000041221C000014083E081400083D
:10256000083E0808000000A06000000808080808ED
:10257000000060600000002010080402003E514985
:10258000453E0000427F4000004261514946002123
:1025900041454B31001814127F100027454545393D
:1025A000003C4A4949300001710905030036494998
:1025B000493600064949291E000036360000000051
:1025C000563600000008142241000014141414149C
:1025D0000000412214080002015109060032495945
:1025E000513E007C1211127C007F49494936003E61
:1025F00041414122007F4141221C007F494949411C
:10260000007F09090901003E4149497A007F080815
:10261000087F0000417F4100002040413F01007FD2
:1026200008142241007F40404040007F020C027F9E
:10263000007F0408107F003E4141413E007F0909B0
:102640000906003E4151215E007F091929460046D6
:10265000494949310001017F0101003F4040403FAD
:10266000001F2040201F003F4038403F00631408F7
:1026700014630007087008070061514945430000D2
:102680007F41410000552A552A55000041417F00F5
:1026900000040201020400404040404000000102EA
:1026A0000400002054545478007F484444380038D3
:1026B0004444442000384444487F0038545454185B
:1026C00000087E0901020018A4A4A47C007F08046D
:1026D00004780000447D4000004080847D00007F3D
:1026E000102844000000417F4000007C041804785A
:1026F000007C0804047800384444443800FC242456
:1027000024180018242418FC007C0804040800483D
:102710005454542000043F444020003C4040207C5E
:10272000001C2040201C003C4030403C004428104D
:102730002844001CA0A0A07C004464544C44141401
:102740001414141400000000000000000000000039
:1027500000000000000000F800000000000000334E
:102760003000000000100C06100C060000000000F5
:102770000000000040C07840C0784000043F0404DE
:102780003F040400007088FC08300000001820FF9F
:10279000211E0000F008F000E018000000211C03DA
:1027A0001E211E0000F00888700000001E21232456
:1027B0001927211010160E00000000000000000074
:1027C00000000000000000E0180402000000000704
:1027D0001820400000020418E0000000004020180B
:1027E00007000000404080F0804040000202010FDE
:1027F00001020200000000F0000000000101011FC2
:1028000001010100000000000000000080B0700025
:1028100000000000000000000000000000010101B5
:102820000101010100000000000000000030300044
:10283000000000000000000080601804006018061E
:102840000100000000E010080810E000000F102058
:1028500020100F00001010F8000000000020203FA2
:10286000202000000070080808887000003028242C
:1028700022213000003008888848300000182020CD
:1028800020110E000000C02010F8000000070424F2
:10289000243F240000F80888880808000019212037
:1028A00020110E0000E0108888180000000F112091
:1028B00020110E0000380808C83808000000003F4A
:1028C000000000000070880808887000001C2221A9
:1028D00021221C0000E010080810E0000000312256
:1028E00022110F00000000C0C000000000000030F6
:1028F0003000000000000080000000000000806048
:1029000000000000000080402010080000010204C8
:1029100008102000404040404040400004040404AF
:10292000040404000008102040800000002010086B
:1029300004020100007048080808F00000000030A0
:1029400036010000C030C828E810E000071827242E
:1029500023140B000000C038E0000000203C2302DC
:102960000227382008F8888888700000203F20203F
:1029700020110E00C0300808080838000718202071
:102980002010080008F808080810E000203F202068
:1029900020100F0008F88888E8081000203F202049
:1029A0002320180008F88888E8081000203F20003D
:1029B00003000000C0300808083800000718202075
:1029C000221E020008F808000008F808203F210134
:1029D00001213F20000808F8080800000020203FDF
:1029E0002020000000000808F8080800C08080804F
:1029F0007F00000008F888C028180800203F200148
:102A00002638200008F8080000000000203F2020A1
:102A10002020300008F8F800F8F80800203F003FB8
:102A2000003F200008F830C00008F808203F2000D0
:102A300007183F00E01008080810E0000F102020E1
:102A400020100F0008F808080808F000203F2101B6
:102A500001010000E01008080810E0000F1824240D
:102A600038504F0008F8888888887000203F200080
:102A7000030C302000708808080838000038202136
:102A800021221C00180808F8080818000000203F40
:102A90002000000008F808000008F808001F2020A7
:102AA00020201F000878880000C838080000073878
:102AB0000E010000F80800F80008F800033C0700C9
:102AC000073C0300081868808068180820302C0331
:102AD000032C30200838C800C83808000000203F08
:102AE0002000000010080808C838080020382621F7
:102AF00020201800000000FE020202000000007FFB
:102B000040404000000C30C0000000000000000108
:102B10000638C00000020202FE00000000404040F3
:102B20007F00000000000402020204000000000018
:102B30000000000000000000000000008080808095
:102B4000808080800002020400000000000000007D
:102B50000000000000008080808000000019242216
:102B600022223F2008F8008080000000003F112052
:102B700020110E000000008080800000000E112057
:102B800020201100000000808088F800000E112035
:102B900020103F200000808080800000001F222243
:102BA00022221300008080F0888888180020203FAF
:102BB000202000000000808080808000006B9494C2
:102BC0009493600008F8008080800000203F21007E
:102BD00000203F2000809898000000000020203F47
:102BE00020200000000000809898000000C0808035
:102BF000807F000008F8000080808000203F2402D1
:102C00002D302000000808F8000000000020203FC0
:102C1000202000008080808080808000203F200075
:102C20003F20003F8080008080800000203F210006
:102C300000203F200000808080800000001F2020B6
:102C400020201F00808000808000000080FFA120E5
:102C500020110E000000008080808000000E1120F6
:102C600020A0FF80808080008080800020203F2185
:102C70002000010000008080808080000033242438
:102C800024241900008080E0808000000000001FE4
:102C9000202000008080000000808000001F202095
:102CA00020103F20808080000080808000010E3056
:102CB0000806010080800080008080800F300C03B7
:102CC0000C300F0000808000808080000020312EBA
:102CD0000E312000808080000080808080818E7096
:102CE0001806010000808080808080000021302C48
:102CF0002221300000000000807C02020000000061
:102D0000003F404000000000FF0000000000000005
:102D1000FF0000000002027C800000000040403FF5
:102D2000000000000006010102020404000000008F
:102D30000000000000000000000000000000000093
:102D40000000000000000000000000000000000083
:102D500000000000080889EA1888000404FC040444
:102D600004FC0000020100FF01864020180740809B
:102D7000403F00001010F01F10F00040E0584740A6
:102D80005060C0004022150816210000FE42424259
:102D900042FE0000008060F807000000FF402010A5
:102DA00008040000010000FF000402013F40404011
:102DB0004040780000040404FF5454545454FF0469
:102DC0000404000011118985939191FD91919385DF
:102DD0008911110000C808090EE808000000FF1062
:102DE00010101000103017100E0908FF414141412A
:102DF00041FF000080808080808080808080808093
:102E00008080800000000000000000000000000042
:102E10000000000000000808080808080808080862
:102E200008000000101010101010101010101010DA
:102E30001010100000048484848484848484848436
:102E4000840400002020202020202020202020207A
:102E50002020200000FC040404FC040404FC0404FE
:102E600004FC0000007F282423202020202122228F
:102E7000227F0000003E22E2223E00FE2222222289
:102E800022E20200203F201F1111007F44444444ED
:102E900044474000040404F484D4A5A6A4D484F4D4
:102EA0000404040000FE0202123A1613121A3242FF
:102EB000827E0000004042445840C0FFC04050485D
:102EC0004640000020201008040300FF000304080F
:102ED0001020200034010020440100205401002073
:102EE00064010020740100200000010203040005B9
:102EF000405C0000A05C0400C06C0800805C040022
:102F0000E03F1E00E07D1E00070400091E0805408A
:102F10000826091040085608054008261D04000828
:102F2000BE1D040008BED8BC07A9022570889B8876
:102F3000401008000A00160001000600010002000F
:102F400087008D002D001A3152001A339A001A356D
:102F50001D011A376B003B31BE003B335E013B3530
:102F600096023B37000099599959EB518F421E4503
:102F7000142E0080EB51F5283333E13A703DE13AED
:102F8000C235852BC2353333C235C235AE47E13A3F
:102F90005138A33051380000B82F0008000000203D
:102FA00034020000280100083830000834020020F4
:102FB000D40600008401000801751480654404B83B
:102FC0008063447F3CE781BDBDBD041AFF10290129
:102FD000E9106914A910290132FF2AFF016A0F01C3
:102FE0001808FEFCF8F0F1F3F7137D7F7F7FFF20D8
:102FF0006AF001191818083F1F0F0F1F3F7F294360
:10300000F0F125020208022201152104418820085E
:10301000CADE5741564521390C1E56455741101EF0
:10302000590F291B02352384A24A044009010203D7
:08303000040607080900000076
:04000005080000ED02
:00000001FF
