:020000040800F2
:1000000008080020C9010008F50D00080D0A0008C5
:10001000F10D0008C9020008551100080000000099
:100020000000000000000000000000002B1000088D
:100030001903000800000000210E0008111100083B
:10004000DF010008DF010008DF010008DF01000810
:10005000DF010008DF010008DF010008DF01000800
:10006000DF010008DF010008DF010008DF010008F0
:10007000DF010008DF010008DF010008DF010008E0
:10008000DF010008DF010008DF010008DF010008D0
:10009000DF010008DF010008DF010008DF010008C0
:1000A000DF010008DF010008DF010008DF010008B0
:1000B000DF010008DF010008DF010008DF010008A0
:1000C000DF010008DF010008DF010008DF01000890
:1000D000DF0100083D11000849110008DF01000898
:1000E000DF010008DF010008DF01000800F002F86E
:1000F00000F05AF80AA090E8000C82448344AAF168
:100100000107DA4501D100F04FF8AFF2090EBAE865
:100110000F0013F0010F18BFFB1A43F0010318473B
:1001200080310000A03100000A444FF0000C10F8AC
:10013000013B13F0070408BF10F8014B1D1108BF65
:1001400010F8015B641E05D010F8016B641E01F805
:10015000016BF9D113F0080F1EBF10F8014BAD1C55
:100160000C1B09D16D1E58BF01F801CBFAD505E073
:1001700014F8016B01F8016B6D1EF9D59142D6D3CD
:10018000704700000023002400250026103A28BFF5
:1001900078C1FBD8520728BF30C148BF0B607047F9
:1001A0001FB51FBD10B510BD00F05BF81146FFF77D
:1001B000F7FF01F06BFD00F079F803B4FFF7F2FFF1
:1001C00003BC01F098F8000008480047FEE7FEE78E
:1001D000FEE7FEE7FEE7FEE7FEE7FEE7FEE7FEE7F7
:1001E00003480449044A054B70470000ED0000082D
:1001F000080200200808002008040020080400204D
:10020000704740EA010310B59B070FD1042A0DD3B4
:1002100010C808C9121F9C42F8D020BA19BA8842E7
:1002200001D9012010BD4FF0FF3010BD1AB1D30726
:1002300003D0521C07E0002010BD10F8013B11F85C
:10024000014B1B1B07D110F8013B11F8014B1B1B85
:1002500001D1921EF1D1184610BD7047704770470A
:100260007047754600F02CF8AE46050069465346C7
:1002700020F00700854618B020B5FFF7B1FFBDE8B4
:1002800020404FF000064FF000074FF000084FF0FD
:10029000000B21F00701AC46ACE8C009ACE8C0098E
:1002A000ACE8C009ACE8C0098D46704710B50446FB
:1002B000AFF300802046BDE81040FFF77EBF00008E
:1002C00000487047A801002000BFFEE710B50446B3
:1002D00004F10800C0B20F494871087101F050FDE7
:1002E00001F0A2FD01F0CBFD00BF012001F0D8F923
:1002F000401C0028F9D001F0BDFD064801F06AF865
:1003000044F2340001F037FB44F2340001F072FB98
:1003100010BD0000C0000020704700002DE9F04F24
:1003200095B08246002001F02FFB002001F0DFFA9B
:1003300000BF00210F2001F069FAAD490860AD4906
:1003400008400028F5D0AA48008800F48040002822
:100350007ED04FF4804200210F2001F0D0FB00211D
:10036000102001F053FAC0F30900A34908600846C1
:100370000068B0F5806F06D80846008881B2002278
:100380009E4801F097FA00209C4988700846407901
:100390009B4908600A229B499848FFF732FF0028D2
:1003A0007ED101F047FC984A03C2974800789749EC
:1003B00008709548D0E90010954BC91840F100002D
:1003C000020642EA11201390139801F0BAFA4FF492
:1003D000FA7001F0BEFA40F6E44001F0D5FA8D481B
:1003E00001788D48817000228C4BDAE9004120466B
:1003F00002F03EF9CAE9000100221346DAE90041A1
:10040000204602F0F9F805D2DAE9000181F0004156
:10041000CAE90001DAE90021104602F05BF8000A9F
:100420007D49C872DAE90021104602F053F87A4992
:10043000087300220F2001F0AEFB00210F2001F015
:10044000BDFB032001F0DEFA00BF00210F2000E019
:10045000C6E001F0DBF966490860664908400028FB
:10046000F3D06C480078401C6A49087060480088E6
:1004700000F4804000287CD04FF4814200210F20FE
:1004800001F03DFB0021102001F0C0F900F07F00D9
:100490005949086008460068182808D8084600E04E
:1004A000A3E0008881B20022544801F003FA002141
:1004B000524881700A225A49FFF7A3FE00287DD1D5
:1004C00001F0CEFB574A03C201F0B4FB564A03C207
:1004D00012A94A480A3001F09DFB11A947480E3085
:1004E00001F098FB10A94548123001F093FB4648F3
:1004F00000680F904B48D0F800B04B4800680E9051
:10050000DDE91112881A02F064F804460D460E99CE
:10051000A1EB0B0002F05DF806460F46DDE9101274
:10052000881A02F056F8804689460F99ABEB010015
:1005300002F04FF8CDE90C0132463B4620462946F1
:1005400001F080FD42464B46CDE9000101F07AFD05
:10055000CDE90201DDE90C2301F074FDCDE90601CE
:1005600040464946DDE90C2302F082F832463B461C
:1005700000E02FE0CDE902012046294602F078F89C
:10058000CDE90001DDE9022302F070F9CDE90401B3
:10059000DDE9062301F00AFECDE9080102F0C6FDFF
:1005A000CDE90A01DDE90A0101F0C2FF1F4A204B33
:1005B000CDE9080102F05CF81E4A00E00FE003C23A
:1005C0004FF098521C4B1B4903C902F051F8CAE97D
:1005D000000104E0194A00210F2001F090FA04E024
:1005E000164A00210F2001F08AFA15B0BDE8F08FFD
:1005F000CC00002000D0272430010020540100202E
:1006000044000020D000002008010020400000200D
:100610000000280A20010020DC00002000005940D2
:10062000EB0000201001002018010020FA48CE3B0A
:100630001835B13D2801002019DDB1410090272473
:10064000014600200022044B1B6803EA01020AB1A4
:10065000012000E000207047000401402DE9F04136
:10066000024600250026002000230024002791F8E0
:1006700003C00CF00F0591F803C00CF0100CBCF196
:10068000000F03D091F802C04CEA050591F800C0B4
:10069000BCF1000F31D0146800202BE04FF0010CAA
:1006A0000CFA00F3B1F800C00CEA03069E4220D118
:1006B00083004FF00F0C0CFA03F7BC4305FA03FC60
:1006C0004CEA040491F803C0BCF1280F06D14FF0A6
:1006D000010C0CFA00FCC2F814C00AE091F803C047
:1006E000BCF1480F05D14FF0010C0CFA00FCC2F828
:1006F00010C0401C0828D1D31460B1F800C0BCF170
:10070000FF0F34DD546800202EE000F1080C4FF09C
:10071000010808FA0CF3B1F800C00CEA03069E4287
:1007200021D183004FF00F0C0CFA03F7BC4305FAFC
:1007300003FC4CEA040491F803C0BCF1280F05D176
:1007400000F1080C08FA0CF8C2F8148091F803C004
:10075000BCF1480F07D100F1080C4FF0010808FA6E
:100760000CF8C2F81080401C0828CED35460BDE8B5
:10077000F081416170470161704700002DE9F04F41
:1007800089B005460E460024F5E000200490274677
:1007900026E0A0461FE007FB068040B207900799BD
:1007A00055F8210002F04CF921F00041CDE9020199
:1007B00001F016FC83465846049902F005FC06D267
:1007C000CDF810B006A8075505A800F8048008F178
:1007D00001004FFA80F8701E4045DCDA781C47B201
:1007E000701EB842D5DA049802F02AF90022864B2E
:1007F000CDE9000101F026FC0022834BCDE9020186
:1008000001F02CFE03D1002009B0BDE8F08F06A84E
:100810000057A0421BD04FF0000815E004FB0680F3
:100820004FFA80F906A8005700FB06804FFA80FABD
:1008300055F829B055F82A0045F8290045F82AB09E
:1008400008F101004FFA80F8701E4045E6DA05A86D
:100850000057A04218D0002713E007FB06404FFACC
:1008600080F905A8005707FB06004FFA80FA55F8F3
:1008700029B055F82A0045F8290045F82AB0781C17
:1008800047B2701EB842E8DA04FB064040B2079057
:10089000079955F8210002F0D3F802460B46CDE93E
:1008A00000010020584901F081FCCDE9020101F06E
:1008B00097FB079945F821004FF0000812E0A0458A
:1008C0000CD004FB06804FFA80F9079A55F82210E5
:1008D00055F8290002F0ACFA45F8290008F10100AA
:1008E0004FFA80F8701E4045E9DA002724E0A7425D
:1008F00020D04FF000081AE0A04514D007FB068076
:100900004FFA80F904FB068255F8221007FB0642D5
:1009100055F8220002F08CFA039055F8291002F0E5
:1009200084FB45F8290008F101004FFA80F8701E99
:100930004045E1DA781C47B2701EB842D7DA00278A
:1009400014E0A74210D007FB06404FFA80F955F893
:10095000290080F000400390079855F82010039874
:1009600002F066FA45F82900781C47B2701EB842BA
:10097000E7DA601C44B2701EA042BFF606AF44B274
:100980003EE005A80057A0421BD04FF0000815E03C
:1009900004FB06804FFA80F905A8005700FB06808B
:1009A0004FFA80FA55F829B055F82A0045F8290081
:1009B00045F82AB008F101004FFA80F8701E404552
:1009C000E6DA06A80057A04218D0002713E007FB7C
:1009D00006404FFA80F906A8005707FB06004FFAB9
:1009E00080FA55F829B055F82A0045F8290045F84D
:1009F0002AB0781C47B2701EB842E8DA601E44B2D2
:100A0000002CBEDA0120FFE60000F03F00BFFEE749
:100A10007CB505460120009003464C4A4C490190A4
:100A20004C4800F092F901234B4A4C49494800F0E8
:100A300051F9012003464A4A4A490090464800F0CD
:100A40002FF90123444A4649474800F043F9012061
:100A50000346414A45490090104600F021F9012122
:100A60003D48FFF78BFE01231A4641493E4800F0FE
:100A7000A7F90120009003463E4A3D4901903848BD
:100A800000F063F90120009003463B4A3949019088
:100A9000314800F05AF90120009003462E4A2B49B4
:100AA0000190314800F051F9012003462A4A1146CD
:100AB0000090284600F02FF90120009003462C4AB0
:100AC000254901902C4800F040F901200346204AB6
:100AD000121F274900901D4800F0E2F80120009005
:100AE00003461D4A20490190234800F02EF90120B9
:100AF0000346194A11460090204800F00CF90120E5
:100B000000900346154A121F15490190124800F043
:100B10001CF900240FE00E48001F50F82410001D9F
:100B200040F824100D48001F50F82410001D40F814
:100B30002410601CC4B2012CEDDB0548001F0068C6
:100B40000F490860084600687CBD00009000002046
:100B500080000020A0000020B000002088000020BD
:100B600094000020A4000020AC000020A800002079
:100B7000B40000209C000020980000208C00002081
:100B80003C00002000B5002015490861C860142011
:100B9000486100208861C8610846006840F0010093
:100BA0000860084640680F4908400D4948600846FB
:100BB00000680D4908400A4908600846006820F4AA
:100BC000802008600846406820F4FE00486000204D
:100BD000886000214FF0006000F058F800BD000070
:100BE000001002400000FFF8FFFFF6FE2DE9F04183
:100BF0000746884614461D46284600F033F8C5F1DE
:100C0000040007FA00F60F20284100EA0800064316
:100C100006F00F06E21704EBD2625211920002F1C5
:100C2000E022D2F800212146E31704EBD3635B11E5
:100C3000A4EB431C012303FA0CF31A432046E317E9
:100C400004EBD3635B119B0003F1E023C3F80021A5
:100C50000348005D40EA061001490855BDE8F081EF
:100C600000E400E00146072323EA01021202054BDB
:100C700018684FF6FF031840034B18431043014B0D
:100C8000186070470CED00E00000FA05024A0A40C7
:100C90000243024B1A60704780FFFF1F08ED00E01F
:100CA0002DE9F04705460E4617469846DDF8209098
:100CB000002409E056F8241055F8240001F0ECFE59
:100CC00047F82400601CC4B208FB09F0A042F1DC24
:100CD000BDE8F0872DE9FF4105460E4617461C4644
:100CE0000020039002900094234603AA3146284630
:100CF000019400F02AF82346224602A9284600F073
:100D00005FF8009423463A4602A903A8019400F034
:100D10001CF8BDE8FF812DE9F04705460E46174651
:100D20009846DDF82090002409E056F8241055F884
:100D3000240002F085F947F82400601CC4B208FBC7
:100D400009F0A042F1DCBDE8F0872DE9FF4F81B04A
:100D500081468A461746DDE90EB600242AE00025C2
:100D600024E0002004FB065147F82100804619E0EA
:100D700008FB06525AF8221004FB0B8259F8220095
:100D800002F056F8009004FB065057F82010009827
:100D900001F082FE04FB065147F8210008F1010032
:100DA00000F0FF08D845E3DB681CC5B2B542D8DBCC
:100DB000601CC4B204988442D1DB05B0BDE8F08F5A
:100DC000F0B504460D4600200FE0002109E001FBCC
:100DD000030654F8266000FB021745F827604E1CF6
:100DE000F1B29142F3DB461CF0B29842EDDBF0BD6C
:100DF00000BFFEE77047000010B5002807DA0A07B9
:100E0000140E054A00F00F031B1FD45403E00A0719
:100E1000130E024A135410BD18ED00E000E400E088
:100E20007047000029B1064A12690243044B1A6157
:100E300004E0034A12698243014B1A6170470000C3
:100E40000010024029B1064A92690243044B9A619C
:100E500004E0034A92698243014B9A6170470000A3
:100E60000010024029B1064AD2680243044BDA60FE
:100E700004E0034AD2688243014BDA607047000005
:100E80000010024001460020044A10884FF6C77245
:100E900010400843014A10807047000000300140B4
:100EA00021B1028842F04002028004E002884FF63D
:100EB000BF731A400280704700B587B0294800F020
:100EC00055F80020ADF808004FF48270ADF80A0024
:100ED0000020ADF80C00ADF80E00ADF810004FF496
:100EE0000070ADF812001020ADF814000020ADF82D
:100EF00016000720ADF8180002A91A4800F06BF898
:100F0000A020ADF8040018208DF8070003208DF80C
:100F1000060001A91448FFF7A1FB4020ADF804002A
:100F200048208DF8070001A90F48FFF797FB102014
:100F3000ADF804008DF8070003208DF8060001A924
:100F40000948FFF78BFB0021064800F062F80121F9
:100F50000448FFF7A5FF10210348FFF70CFC002011
:100F600007B000BD003001400008014010B5044644
:100F70001148844208D101218014FFF773FF00213A
:100F8000A014FFF76FFF16E00C48844208D101213E
:100F90000014FFF747FF00212014FFF743FF0AE08A
:100FA0000748844207D10121C013FFF73BFF00210E
:100FB000E013FFF737FF10BD00300140003800405C
:100FC000003C00400246002013890B400BB1012079
:100FD00000E00020704710B50022028802F4415260
:100FE0000B884C8823438C882343CC8823430C896B
:100FF00023434C8923438C892343CC8923431A43BD
:101000000280838B4FF2FF74234083830B8A038219
:1010100010BD21B1828842F00402828004E08288FF
:101020004FF6FB731A4082807047704730B5044614
:101030000025FFF7A7FD1F48006840F480301D49D8
:10104000086000BF1B480068400C0028FAD04FF42D
:10105000806018494860A01EC4B20846406840EA53
:10106000844048600846406840F480304860124838
:10107000006840F03200104908600E48006840F0F7
:1010800080700C49086000BF0A480068400E0028C4
:10109000FAD00848406840F002000649486005E080
:1010A00004484068C0F3870505F00305022DF7D119
:1010B00030BD0000001002400020024010B513486F
:1010C00000684FF47A71B0FBF1F4B4F1807F01D382
:1010D000012011E024F07F40401E4FF0E0214861E4
:1010E0000F214FF0FF30FFF787FE00204FF0E02187
:1010F000886107200861002008B100BFFEE70521D4
:10110000881FFFF779FE002010BD00003C01002081
:1011100002480068401C01490860704750010020E7
:1011200000BF0549098801F040010029F9D00249B2
:10113000091D088070470000003801400148008800
:1011400070470000003801400148008870470000E7
:101150000044004000BFFEE738B504466D20009013
:101160006B46012240F606012E2000F0E0FC3CB167
:1011700040F2076241F606012E2000F0ADFC06E0C9
:1011800041F2076241F606012E2000F0A5FC38BDB1
:1011900038B504466B4602220021362000F058FB89
:1011A0000E2C57D2DFE804F011071A565656562374
:1011B0003256563F464D00208DF800009DF8010044
:1011C00000F0FE008DF8010045E09DF8000000F001
:1011D000FC0040F001008DF800003CE09DF80000AC
:1011E00000F0FC0040F002008DF8000033E09DF8B4
:1011F000000000F0B30040F048008DF800009DF8BA
:10120000010040F080008DF8010024E09DF800000E
:1012100000F0B3008DF800009DF8010000F07F00A1
:101220008DF8010017E09DF8010040F002008DF8F4
:10123000010010E09DF8010000F0FD008DF80100B4
:1012400009E09DF8000000F0CF0040F020008DF88C
:10125000000000E000BF00BF6B46012200213620E5
:1012600000F065FC0DF1010301221146362000F06B
:101270005EFC38BD08B503208DF8010001208DF813
:1012800000006B4602220021362000F050FC4FF493
:10129000004206212D2000F01FFC012000F02DF857
:1012A0000120FFF775FF08BD38B50446200A8DF808
:1012B0000100E0B28DF800006B46022204212D20CF
:1012C00000F035FC03208DF800006B46012206215A
:1012D0002D2000F02CFC00208DF800006B46012230
:1012E00006212D2000F023FC0A212D2000F08EFA8B
:1012F0000546284638BD00BF704770B5044600F06B
:101300004DFD051900BF00F049FD401B0028FADD26
:1013100070BD014651B117200122824043099B0054
:1013200003F1E023C3F8002100BF00BF70470000B5
:1013300010B51720FFF784F9044644B117200121A6
:101340008140044A430942F8231000BF00BF2046F1
:1013500010BD000080E100E04FF0E021096921F0BC
:1013600004014FF0E0221161C21700EB5272C2F388
:10137000C702074B1A701946097801EB4102C2EB0C
:10138000C1114FF6FF7202EAC101024A1180704793
:10139000B8000020BA00002001460D4A12884A43D6
:1013A0004FF0E0235A6100229A6101221A6100BFC6
:1013B0004FF0E022106900F001021AB100F480320F
:1013C000002AF5D000224FF0E0231A619A6170479D
:1013D000BA0000202DE9F84F04464FF00009CA4634
:1013E00025786079824931F810806078401E814903
:1013F000C6B20863042D01D0072D01D1012000E001
:101400000020834620787B490873E07938B9084684
:10141000806940F4800088614FEAE80805E075487B
:10142000806920F4800073498861207A714948738B
:1014300008468069217A4FF4403202EA01410843AC
:101440006C498861084600218269042000F057FB3E
:10145000424642F604012E2000F03EFB3046FFF7E4
:101460007BFE6548405D00EB80006449431805221F
:1014700007212B2000F05BFB614800EB0B030122EE
:101480000B21282000F053FB5B48405D5D4951F87B
:1014900020200C21282000F032FBE0795A4901EB92
:1014A0008000A17930F811200221272000F014FBE0
:1014B000564830F816200421272000F00DFBE07973
:1014C00028B964220621272000F006FB1EE0A07840
:1014D00004280DD11020009010220621272000F0B2
:1014E000FBFA6B4601222621272000F020FB0DE0AD
:1014F0002820009020220621272000F0EDFA6B46DC
:1015000001222621272000F012FB00BF404800EBFB
:101510000610E17850F821200821272000F0EFFA8A
:10152000B4F8090018B941F24100A4F80900B4F870
:1015300009202021272000F0CFFA36480C2102682C
:10154000232000F0DCFA3348001D30F81620042177
:10155000232000F0C1FAA07958B1E0792E49431850
:1015600001220021212000F0E2FA4FF003094FF0A0
:10157000010A05F00F00F02101EA05110843617826
:101580004FF4402202EA81410843910001EA0951E7
:1015900008434FF4003101EA4A41084321794FF0F2
:1015A000F86202EA815108436179520102EAC1619D
:1015B00040EA01073A4600211F2000F0A0FAA07877
:1015C0006178084300040B49086108460069E17925
:1015D0004FF4004242EA4131084306490861084697
:1015E00000210269082000F08AFA0020BDE8F88F87
:1015F0006C3200086C010020F03100081032000845
:101600002E320008F83100083C3200084832000849
:101610004C320008303200083832000870B50546F8
:101620000421362000F0F2F8044615B144F40064B9
:1016300001E024F4006422460421362000F05FFA21
:1016400070BD000038B54020009000210E2000F051
:10165000DDF80546FFF76CFE0446002211460E2019
:1016600000F04DFA6B46012200210D2000F05FFAD8
:10167000094A00210F2000F042FA00F011FA2A4630
:1016800000210E2000F03BFA2046FFF742FE00202A
:10169000024981F82C0038BDF8FF27246C01002096
:1016A0002DE9FC410546042001900026002700207A
:1016B0004949487508630021474880F825100020F3
:1016C000454981F82C0088834863886300F0BAF8A4
:1016D00041490860084600684049884202D088179E
:1016E000BDE8FC810020FFF753FD4FF01F320021C1
:1016F0001E2000F004FA01AB01220021242000F09A
:1017000016FA1E20FFF7D0FD86B2300A32498873E0
:101710000420FFF7C9FD0746F8B270B1022000901F
:101720006B46012212212D2000F001FA2A48808BFD
:1017300040F480502849888300BF0620FFF7B4FD9D
:10174000254948600720FFF7AFFD2349886006F070
:101750001F0008750846007D08B9102008751E494D
:10176000087D00F03DFA05F0010040B1FFF782FD71
:101770001948808B40F40060174988830DE00521EB
:10178000362000F02DF804464FF6FF500440224664
:101790000521362000F0A0F900BF0120FFF7F8FC7A
:1017A0000021042000F032F80B4988610021262036
:1017B00000F02CF8044644F4A03444F4A02422465B
:1017C0000021262000F09BF900222621362000F07F
:1017D00083F9002084E700006C0100203001CADE9C
:1017E000F8B504460D464FF6FF76A9B2A0B26B4697
:1017F000022200F02DF8074637B99DF800009DF849
:10180000011000EB012086B23046F8BD2DE9F84307
:1018100005460E464FF0FF37B1B2A8B26B46042220
:1018200000F016F88046B8F1000F08D1032404E058
:101830001DF8040000EB0727641E002CF8DA384678
:10184000BDE8F88310B500210846FFF7DFFF10BDA3
:101850002DE9F84306460C461746984600252CB954
:10186000F2B228466D1C0DF800201BE0F0B240F0EB
:10187000400228466D1C0DF800207F2C05DCE2B2EA
:1018800028466D1C0DF800200CE0E0B240F080020C
:1018900028466D1C0DF80020C4F3C71228466D1CA5
:1018A0000DF80020A8B243463A46694600F07CFA9B
:1018B000BDE8F88370B504460D46164623462A4611
:1018C00031461120FFF7C4FF70BD10B50446234612
:1018D000052200211520FFF7BBFF10BD10B50446FF
:1018E0002346052200211720FFF7B2FF10BD38B5AF
:1018F00004460020009000F0D3F84FF480750CB13E
:1019000045F400752A4600210D2000F0E5F8B4B139
:101910006B46012203210F20FFF79AFF9DF800007C
:1019200000F0080058B1FFF78DFE4FF480752A468D
:1019300000210D2000F0D0F84FF0FF3038BD00201E
:10194000FCE710B50446224601210A2000F0D7F832
:1019500010BD70B5054600211A20FFF757FF044659
:101960006FF31304C5F313000443224600211A2029
:1019700000F0C5F870BD10B50446224641F60401DA
:101980002E2000F0A9F810BD38B504466B460122A0
:1019900003210420FFF75CFF002C16DD2246002106
:1019A0000C2000F099F89DF8000040F01000009025
:1019B0000F48806940F080500D4988616B460122D4
:1019C0000321042000F0B3F810E09DF8000020F09F
:1019D000100000900648806920F08050044988611A
:1019E0006B4601220321042000F0A1F838BD00005D
:1019F0006C01002010B5044622460021182000F09A
:101A00006BF810BDF8B504460025002000900026B4
:101A100004F0020058B1802000906B4601220021A2
:101A20000D2000F084F801201C4981F82C0004F0FE
:101A3000010028B39DF8000040F0060000906B46BE
:101A4000012200210D2000F072F803210F20FFF782
:101A5000C7FE064606F4816008B900251BE0402059
:101A600000906B46012200210D2000F060F800205C
:101A7000FFF7D4FD0020094981F82C00451E0AE03B
:101A80009DF8000040F0020000906B46012200210A
:101A90000D2000F04CF82846F8BD00006C01002035
:101AA0001CB501AB012203210F20FFF7D1FE9DF8E9
:101AB000040000F080009DF8041001F04001B0EB3C
:101AC000410F08D0012000906B46012203210D2018
:101AD00000F02DF800BF1CBDF8B505460E461446B3
:101AE000E0B28DF8000020128DF80100B1B2A8B26A
:101AF0006B46022200F01BF807463846F8BD2DE978
:101B0000F84306460F461446002504E0E0B20DF8FF
:101B10000500240A6D1C042DF8DBB9B2B0B26B4687
:101B2000042200F004F880464046BDE8F8832DE921
:101B3000F84306460C461746984600253CB9F0B2D5
:101B400040F0800228466D1C0DF800201BE0F0B22A
:101B500040F0C00228466D1C0DF800207F2C05DCEB
:101B6000E2B228466D1C0DF800200CE0E0B240F017
:101B7000800228466D1C0DF80020C4F3C7122846C9
:101B80006D1C0DF80020A8B243463A46694600F0A5
:101B9000E9F9BDE8F88370B504460E4615462819E4
:101BA000B0F5806F02DD4FF0FF3070BDA21E3346EE
:101BB00029460920FFF7BBFF0020F6E770B5044671
:101BC0000D4606480069204340EA8556324600210A
:101BD0000820FFF794FF002070BD00006C0100207A
:101BE00038B504466B4601220E212B20FFF730FE4C
:101BF0009DF8000020F01F00009004F01F009DF8E9
:101C00000010084300906B4601220E212B20FFF7A5
:101C10008EFF38BD10B5024600230B60002006E0A1
:101C2000135CC400A3400C6823440B60401C0428D0
:101C3000F6DB10BD7CB500210C460D466846FFF76B
:101C400044FE042607E0280240EA146524021DF839
:101C500006000443761E002EF5DA204629467CBD98
:101C60007CB500210C460D466846FFF737FE04267A
:101C700007E0280240EA146524021DF80600044328
:101C8000761E002EF5DA204629467CBD0920FFF796
:101C9000CDF94820FFF760FB4FF41651482000F0C3
:101CA000F3F805202B4908600420FEF70FFB4FF4E2
:101CB0007A70FFF771FB4CE02748FEF72FFB0022FC
:101CC000264B254903C900F097FC42D8224903C995
:101CD00000F086F9224908600846FEF799FE21487F
:101CE0000068C0432049C1F8B80120492048006875
:101CF00001F09EF81F4908604FF087411D480068B9
:101D000000F038FF044600F0F7FF1B49086009683F
:101D1000080201F02DF8054616480168284601F032
:101D200084F9044600F0E8FF14490860FF20FFF73B
:101D3000F7F9FE20FFF7F4F90F490878FFF7F0F9FB
:101D40000E490878FFF7ECF906490968C8B2FFF7B1
:101D5000E7F9B1E7740000200000002000004940CE
:101D600038000020B8812142008021420000C84292
:101D70003C00002070000020500000205C0000208B
:101D800010B501210803FFF75DF8FFF797F9FFF79A
:101D900093F80A20FFF7B1FA10BD0000014800686F
:101DA00070470000500100202DE9F04706460F461D
:101DB00090461D460024FFF7BBFA814610201849C3
:101DC000086000BF0DE0385D1649888100BF012121
:101DD0001448FFF7F7F80028F9D0124880892870D6
:101DE000641CB442EFDB00240DE000200D49888123
:101DF00000BF0C48008900F001000028F9D0094814
:101E000080892855641C4445EFD310200449091FDC
:101E100008604846FFF77DFA0020BDE8F087000023
:101E2000140801400030014008B50120ADF8000061
:101E300010208DF8030003208DF8020069460C483D
:101E4000FEF70CFC01210A48FEF793FC0120ADF8D7
:101E5000000000208DF8030003208DF80200694681
:101E60000348FEF7FBFB0220FFF747FA08BD00001E
:101E70000008014000B50820FFF704F800BD00B5D8
:101E80002020FEF7FFFF00BD2DE9F05F05460E465E
:101E9000300100F085FF81462E4905FB01F000F07E
:101EA0007FFF8246494600F065FE0746384600F04F
:101EB0003FFF84B2204600F073FF8346394601F0AD
:101EC000B4F882464FF0834100F0B2FF814600F043
:101ED0002FFF80464FF6FF7000EA041404EB080061
:101EE00084B21D48806940F004001B49886108469F
:101EF000806940F4804088611848006820F47F6061
:101F0000164908600846006840F40B6008601248F3
:101F1000C06840F480401049C8600846C06820F49A
:101F20008040C8600E480480001D008842F20C0109
:101F300008430B49091D08800846008840F020002E
:101F400008800223252201210846FEF74FFEBDE846
:101F5000F09F000040420F000010024004080140C2
:101F6000083801402DE9F04705460E4617469846C9
:101F70000024FFF7DDF9814610201749086000BFF3
:101F80000CE0305D1549888100BF1448008900F0DD
:101F900001000028F9D011488089641CAC42F0DBB4
:101FA00000240DE018F804000C49888100BF0B489C
:101FB000008900F001000028F9D008488089641CDD
:101FC000BC42EFD310200449091F08604846FFF7C0
:101FD000A0F90020BDE8F08714080140003001405E
:101FE00021F00042A2F16052B2F5801F01F00043DF
:101FF00028BFD2F17F6C0BD95FEA001C43EAC20212
:1020000042EB507018BF704728BF20F001007047A6
:10201000B2F5801FBCBF184670474FEA410C1CF553
:10202000001F02D2084600F0CABF70B500F0CAFB1C
:1020300000000089FFF7F6BF4FF00040A0F58000D8
:102040007047000010B591EA030F48BF83F00043CA
:1020500000F11484841A71EB030C05D2121943EBBE
:102060000C03001B61EB0C01DFF824E14FEA115473
:10207000A4EB135C1EEA430F18BF9EEA445F73D0C3
:1020800023EA0E03DCF1200E21EA045143F480130D
:1020900032D322FA0CFE10EB0E0023FA0CFE41EBB9
:1020A0000E01CCF1200E03FA0EFE10EB0E0051F1E2
:1020B0000001B1F5801FCCF1200E32D201EB0451AA
:1020C00012FA0EF2BDE8104058BF7047401C38BFEE
:1020D0005FEA420218BF7047002814BF20F00100D9
:1020E00041F100014FEA410313F5001F38BF70476B
:1020F000A1F1C04100F0B4BB012A43EB0302ACF1F3
:10210000200CDCF11F0E32BF4FF0000E23FA0CF34F
:1021100010EB030041EB0451B4EB115FD0D0A1EB05
:10212000045101F5801149085FEA300001EB0451C8
:102130000ED350F1000038BF12FA0EFE08D1BDE8F0
:102140001040C9E7401C38BF5FEA4202CAD1C3E76A
:10215000BDE810404FEA410313F5001F38BF704738
:10216000A1F1C04100F07CBB9EEA445F08D011EAB7
:102170005E0FBDE8104004BF01F000410020704731
:10218000BDE8104070B500F01DFB00BF64FBBE3E13
:102190000000E0FF491058BFC1F140415B1058BF3B
:1021A000C3F140438B42EFF3008070472DE9C041FB
:1021B00030B4DFF8A0C23CEA111418BF3CEA131493
:1021C00000F0EC8081EA03051CEA111444EAD5749E
:1021D00018BF1CEA131500F0C780A4EB05044FF0EC
:1021E000004545EAC12145EAC32341EA505143EA8B
:1021F000525304F17F74994204F500344FEAC02031
:102200004FEAC22208BF904200F09C804FEA13655B
:102210000FF24016765D4FEA134506FB05F7C7F14E
:10222000807706FB07F74FEAD737A7FB03687642AC
:10223000C8F58038A7FB06CE38BFA8F1010807FB18
:1022400008E64FF0000EA6FB028CE6FB03CEDCF1A5
:10225000000CCEF1004E38BFAEF1010EA6FB0C58BB
:102260004FF000074FF00005E6FB0E87A1FB08C604
:10227000A0FB07CE16EB0E0645F10005E1FB076556
:1022800015F1E04E7EBFA4F580345FEA46066D414D
:1022900016F1800745F100054FEA17274FEA066659
:1022A00047EA0567A6F1DE46B6F1805F4FEA1525DD
:1022B0001FD9384624F0010C05EBC471BCF1FE6F48
:1022C00001EB0C1102D8F0BCBDE8008124425CBFD8
:1022D00001F5801E9EEAC47F02D4F0BCBDE80081F7
:1022E000244238D4F0BCA1F1C041BDE8004100F067
:1022F000B7BA4FEAD22242EA43524FEAD323A7FBAE
:1023000002864FEAD02040EA415007FB03661EEAEE
:102310000E0F4FEAD12105FB026658BFA6EB00560F
:10232000B6EB00564FEA520E4EEAC37E18EB0E0E85
:1023300056EB530EBDD518EB02085E417F1C55F1DC
:102340000005B6E74FF480154FF000074FF0000688
:102350004FF00008ADE7F0BC4FF0000001F1C041C4
:1023600001F00041BDE8008111EA0C1F0CEA1315D1
:1023700000D00CE013EA0C1F00F025804FF00000A5
:10238000F0BC81EA030101F00041BDE80081F0BC2E
:10239000BDE8004181EA030100F062BAF0BCBDE88B
:1023A000004170B500F00EFA097EFC3E00F007B85F
:1023B00081EA03014FF0000001F00041704781EA1B
:1023C000030100F04DBAF0BCBDE800414FF0000041
:1023D00021497047FFFDFBF9F7F5F4F2F0EEEDEB64
:1023E000E9E8E6E4E3E1E0DEDDDBDAD8D7D5D4D313
:1023F000D1D0CFCDCCCBCAC8C7C6C5C4C2C1C0BF5F
:10240000BEBDBCBBBAB9B8B7B6B5B4B3B2B1B0AF64
:10241000AEADACABAAA9A8A8A7A6A5A4A3A3A2A148
:10242000A09F9F9E9D9C9C9B9A9999989797969503
:1024300095949393929191908F8F8E8E8D8C8C8B9F
:102440008B8A898988888787868585848483838227
:10245000828181800000FF070000F87F51EA030CB1
:1024600017D41CF5801F58BFBCF5801F00F10680F3
:10247000994218BF704708BF9042704707D711F5BF
:10248000801F58BF13F5801F19D4994270478942A5
:1024900070471CF5801F08D5BCF5801FF7D58B420F
:1024A00018BF704708BF824270474FF4001C1CEBF6
:1024B000410F38BF1CEB430F01D28B42704770B500
:1024C00000F080F9922449004FF000514FF0805302
:1024D000FFF760BE4FEA1153A3F58063D3F11E03EB
:1024E000A8BFD3F1200C08DB4FF0004242EAC12222
:1024F00052EA505232FA03F0704709420BD4102BC3
:10250000C4BF0020704703F5787CBCF1FF3F05D0C5
:102510004FF0FF3070474FF00000704770B500F08B
:1025200051F900BF4992248000207047F0E7000075
:102530007FEAE17202D1101A62EB0101B1FA81F374
:102540000B3B24D3994012D1B0FA80F310FA03F177
:1025500008BF7047C3F11D0303F5406303EBC223BB
:102560004FEAD1224FEA415002EB03517047C3F1C9
:10257000200C20FA0CFC9840C3F1320303F54063B1
:1025800003EBC22341EA0C0101EB0351704710B584
:10259000C3F1320CC3F10004C4F1200E0CF5406C01
:1025A0000CEBC22201FA0EFC21FA04F100FA0EF340
:1025B000E040BDE8104040EA0C0001EB025138BF9A
:1025C0007047401C41F100015B0008BF20F0010092
:1025D0007047B0FA80F310FA03F10AD0C3F11D037B
:1025E00003F580634FEA41504FEA035202EBD121D9
:1025F00070474FF00000704751EA030C17D41CF5E8
:10260000801F58BFBCF5801F00F10680994218BF9B
:10261000704708BF9042704707D711F5801F58BF19
:1026200013F5801F19D499427047894270471CF5F1
:10263000801F08D5BCF5801FF7D58B4218BF7047A7
:1026400008BF824270474FF4001C1CEB410F38BF9B
:102650001CEB430F01D28B42704770B500F0B2F80B
:10266000922449004FF000514FF08053FFF792BD84
:10267000DFF848C170B51CEA111E1EBF1CEA131515
:102680009EEA0C0F95EA0C0F00F06F8081EA0304BC
:1026900023EA4C134EEAD47E21EA4C1141F4801116
:1026A00043F48013AE44A1FB024CA0FB0365AEF1E2
:1026B0007F7E361955EB0C05A1FB034C4CF1000352
:1026C000A0FB021C16EB0C06654153F10003094206
:1026D00018BF46F0010613F4007F0BD14FEA033117
:1026E0004FEA0530340341EA155140EA16506FF0C5
:1026F00003020AE04FEAC3214FEAC520F40241EA8F
:10270000555140EA56506FF0020202EB2E4201EBA7
:10271000025585EACE710AD05FEA440C18BF24F056
:10272000004450F1000041F1000120EAD47040F271
:10273000FE7C624500D270BDA84214BF4FF08044B9
:102740004FF04044002E08BF0024BEF1806FA8BFA8
:10275000A1F1C041BDE8704080F282804FF00000DE
:1027600001F1C04101F0004170479EEA0C0F0CEAF4
:10277000131518BF95EA0C0F06D04FF0000081EA40
:10278000030E0EF0004170BD00F01CF88900013E00
:1027900000F007B800F009B84FEA430C5FEA5C5C50
:1027A00008D081EA030100F05BB84FEA410C5FEA10
:1027B0005C5CF6D14FF00000014970470000FF0754
:1027C0000000F87F0EF1020E2EF0030E5EF8046B8F
:1027D000364205D4012A43EB030515F5001F12D834
:1027E000012841EB010C1CF5001F0CD80ED14FEA5B
:1027F000D17C15F5001F0CEB4C0C0CF1020C08BF42
:102800004CEBD37C04E04FF0080C01E04FEAD37CA2
:102810000CEB4C0526FA05F606F00706B6F1040C9B
:1028200006D20EEB860CBDE870404CF0010C604700
:10283000DFE80CF0090B02024FF000414FF00000FE
:10284000A1F5002170BD19461046012851EB010485
:1028500018BFD4F5001484BF002001F0004170BD02
:102860000808A0F500114FEA3101704710B591EA50
:10287000030F48BF83F000433FF5ECAB841A71EBC4
:10288000030C07D212198CF0004C43EB0C03001B15
:1028900061EB0C01DFF8A4E14FEA1154A4EB135CE7
:1028A0001EEA430F18BF9EEA445F00F0B08023EA9F
:1028B0006E03524221EA0451C3EB6E0338BF5B1E24
:1028C000DCF1200E25D322FA0CFE10EB0E0043FAA9
:1028D0000CFE41EB0E01CCF1200E03FA0EFE10EBC4
:1028E0000E0051F10001CCF1200E29D412FA0EF2A3
:1028F00001EB0451BDE8104058BF7047401C1CBF9D
:10290000B2F1004F704700280CBF491C20F00100B5
:10291000704712EB020E43EB030218BF4FF0010E9B
:102920004EEA4202ACF1200CDCF11E0E54D943FAFF
:102930000CFE10EB0E0051F1FF31CCF11E0ED5D57F
:102940000EF1010E12FA0EFE404141EB010101EBC6
:10295000445C5FEA5C5C10D910EBDE7001EB045163
:1029600038BFBEF1004FBDE8104018BF70470028C7
:102970000CBF491C20F00100704730D24FEAD42C24
:1029800011F5001124F400641BD0B1FA81F20B3A66
:10299000A41AA41ED2F12003914030FA03F3194384
:1029A000904001EBCC71002C01EB0451BDE81040CC
:1029B000A8BF704701F1C0414FF0000001F0004195
:1029C0007047B0FA80F310FA03F100D110BDE41A99
:1029D000173C4805C90AE4E701EB045110BD491052
:1029E00001EB0451BDE810404FEA300002E04FF027
:1029F000000170474A0008BF0042F8D0B2F5001F3E
:102A000028BF704701F000414FF0000070479EEA78
:102A1000445F07D011EA5E0FBDE8104004BF0021FB
:102A200000207047BDE8104070B5FFF7CBFE00BF37
:102A300040DFF63E83F00041104670470000E0FFA3
:102A400043004FEAD30C4FEA3C0C43401FBF400702
:102A50000CF1605113F0FE4F70471CF0006F03D172
:102A600000200CF0004170470CF0004343EA507026
:102A700010B540EACC0000F05CFA00BF0000009204
:102A80004FEA0001FFF7ECBE4FF000414FF00000AD
:102A9000A1F500217047000090EA010F48BF81F0C6
:102AA000004100F1D482421A3CBF801A89184FEAD3
:102AB000D0524FF07F4C1CEA410FA2EBD15318BF0C
:102AC0009CEA026F00F03B804FF0004C4CEA002083
:102AD0004CEA012121FA03FC10EB0C0C1ED202F18E
:102AE000FF325FEA1C2040EBC25038BF70471CF039
:102AF0007F0F4FEA400C18BFBCF17F4F38BF7047C3
:102B0000C3F12003994008BF20F00100BCF17F4FC2
:102B100038BF7047A0F1C04000F051BA4FEA3C0006
:102B2000000A40EBC25028BF1CF0FF0F4FEA400CD8
:102B3000E6D018BFBCF17F4F38BF7047EAE79CEA88
:102B4000026F05D010EA5C0F08BF00F0004070472C
:102B500010B500F0EEF900BF64FBBE3E401058BF58
:102B6000C0F14040491058BFC1F140418142EFF3EC
:102B7000008070474FF47F0C1CEAD0121EBF1CEA85
:102B8000D11392EA0C0F93EA0C0F00F0858090EAC3
:102B9000010F48BF42F4807240F4000C41F4000081
:102BA0002CF07F4120F07F4000B58142A2EB030270
:102BB0000FF2081CACEB504EC0F100009EF800E094
:102BC0004FEA4E0E00FB0EFC38BF49004FEA2C1CAA
:102BD00002F5FA020CFB0EF34FEACE1E4FEA112C5F
:102BE0004FEAC1210EEB635E42EB22420EFB0CFC6E
:102BF0004FEA1C5300FB03114FEA112C4FEA01313D
:102C00000EFB0CFC4FEADC4C00FB0C11C14228BF50
:102C100009184CEB03335DF804EB10EB410143EB77
:102C2000C250B2F57C0F38BF704729D512F0F00FB3
:102C30001CBF00F1C04000F000407047008182835B
:102C40008485868788898B8C8D8E8F9192939596BB
:102C500097999A9C9D9FA0A2A3A5A7A8AAACAEB045
:102C6000B2B3B5B7B9BCBEC0C2C5C7C9CCCED1D44A
:102C7000D7D9DCDFE2E6E9ECF0F3F7FAFE0000007A
:102C80004FEA400C0CF1807CBCF17E4F28BF7047AE
:102C9000B0F1C04000F093B990EA010F0CEAD113F3
:102CA00048BF42F48072624538BF634507D213F4CF
:102CB0007F0F16D080EA010000F00040704710B589
:102CC00000F037F9097EFC3E00F005B880EA01000B
:102CD00000F00040704780EA010000F0004000F082
:102CE0006EB912F47F0F04BF0248704780EA0100FA
:102CF00000F065B90000C07F41000B0ED3F19E02C9
:102D000008D950F400034FEA032323FA02F048BF26
:102D10004042704710B500F00CF900BF4992248082
:102D2000002070476FF0004282EA200070470000E8
:102D3000C10DD1F19E0206DB4FEA002343F00043B0
:102D400023FA02F07047004207D54FEA4001B1F183
:102D5000FE4F02D24FF00000704710B500F0E9F8C6
:102D600049922480002070476FEA200070470000DD
:102D700010F0004148BF4042B0FA80F310FA03F26D
:102D8000C3F19D030BD051EAC35101EB122053064E
:102D900038BF704700F1010008BF20F00100704704
:102DA000B0FA80F310FA03F2C3F19D030AD0D905FB
:102DB00001EB1220530638BF704700F1010008BF35
:102DC00020F001007047000050EA010C00F1138070
:102DD0001CF5000F58BFBCF5000F01D488427047A6
:102DE00007D710F5000F58BF11F5000F15D4884212
:102DF0007047894270471CF5000F04D5BCF5000FE1
:102E0000F7D5814270474FF0807C1CEB400F38BFF4
:102E10001CEB410F01D28142704710B500F089F8D8
:102E2000922449004FF000504FF08051FFF796BEBA
:102E30004FF47F0C1CEAD0121EBF1CEAD11392EA99
:102E40000C0F93EA0C0F00F0478090EA010F48BF87
:102E500042F480724FF0004C4CEA00204CEA012111
:102E600002EB0302A0FB0113A2F50002002918BF28
:102E700043F001035B0028BF4FEA330342EB2242D9
:102E80005FEA132C4CEBC2502EBFBCEB436FB2F584
:102E90007C0F70474FEA036CBCF1004F08BF20F075
:102EA0000100B2F57C0F38BF70470BD582F0FF02EE
:102EB00012F5803FC8BF704700F1C040D8BF00F096
:102EC0000040704700F5000C5FEA4C0C48BF7047AB
:102ED000B0F1C04000F073B890EA010F0CEAD113D2
:102EE00048BF42F48072624538BF634504D280EA2D
:102EF000010000F00040704710B500F01AF800BF64
:102F00008900013E00F007B800F009B85FEA410C03
:102F10005FEA1C6C08D080EA010000F050B85FEA5C
:102F2000400C5FEA1C6CF6D14FF00040A0F5800029
:102F300070470EF1020E2EF0030E5EF8044B244291
:102F400004D44FEA4102B2F17F4F11D84FEA400357
:102F5000B3F17F4F0CD80ED14FEAD07CB2F17F4F46
:102F60000CEB4C0C0CF1020C08BF4CEBD17C04E0D8
:102F70004FF0080C01E04FEAD17C0CEB4C0324FA33
:102F800003F404F00704B4F1040C06D20EEB840C35
:102F9000BDE810404CF0010C6047DFE80CF007087A
:102FA00002024FF00040A0F5800010BD084642002C
:102FB00018BFD2F1807288BF00F0004010BDFF2121
:102FC00041EAD050C005704751EA000C00F113806F
:102FD0001CF5000F58BFBCF5000F01D481427047AB
:102FE00007D711F5000F58BF10F5000F15D4814217
:102FF0007047894270471CF5000F04D5BCF5000FDF
:10300000F7D5884270474FF0807C1CEB410F38BFEA
:103010001CEB400F01D28842704780EA010081EA30
:10302000000180EA0100FFF7F8BE80F0004090EA5E
:10303000010F7FF538AD81F0004100F008B80000C5
:1030400090EA010F48BF81F000413FF52CAD421AD4
:1030500004D882F00042A0EB020011444FEAD052A3
:103060004FF07F4C1CEA410FA2EBD15318BF9CEAF2
:10307000026F4AD04FF0004C4CEA00204CEA01218C
:1030800021FA03FCB0EB0C0C0FD412F0FE0F36D07B
:103090005FEA4C001DD5001240EBC25038BF7047AC
:1030A0001CF03F0F18BF70470BE0A2F101025FEA6E
:1030B0001C2040EBC25038BF70471CF07F0F18BF78
:1030C0007047C3F12003994014BF401E20F0010057
:1030D000704780084FEA122308BF7047B0FA80FC9F
:1030E000A2EB0C02CCF1280C60FA0CF093EA122F40
:1030F00004BF00EBC25070474FEAC3707047130A19
:103100005FEADC1008BF7047F6E79CEA026F04D064
:1031100010EA5C0F08BF0020704710B5FFF709FFE9
:1031200040DFF63E81F00040704700004FEAC123C7
:103130000A1543EA50534FEAC02C18BF43F000432E
:103140001BD4A2F24E02D2F57C7240F34280502A88
:10315000A8BF502223FA02F12CFA02F0D2F1200289
:1031600060B403FA02F588BF2843C2F1000223FAD3
:1031700002F598BF284360BC704702F57C7212F5D7
:10318000826F08BF23F00043D2F12E0221DB1AD058
:10319000502AA8BF502223FA02F12CFA02F0D2F1F1
:1031A000200260B403FA02F588BF2843C2F100028E
:1031B00023FA02F598BF284360BC4042C1F10001E8
:1031C00038BF491E70479CF0000F08BF93F0004FB6
:1031D000DED070B5FFF7F6FA9224498000214FF057
:1031E000000070476FEAE17080F000417047000016
:1031F0000000010203040005405C0000A05C040024
:10320000C06C0800805C0400E03F1E00E07D1E00F2
:10321000070400091E080540082609104008560842
:10322000054008261D040008BE1D040008BED8BCC9
:1032300007A9022570889B88401008000A00160024
:10324000010006000100020087008D002D001A31E8
:1032500052001A339A001A351D011A376B003B31A0
:10326000BE003B335E013B3596023B370000995967
:103270009959EB518F421E45142E0080EB51F528D1
:103280003333E13A703DE13AC235852BC2353333F1
:10329000C235C235AE47E13A5138A330513800004B
:1032A000C03200080000002054010000280100087E
:1032B0000C33000854010020B4060000840100080B
:1032C000015403381027EF803FCDCC1C41142D6FE3
:1032D00012033A08790484401C462502020802229F
:1032E000015321041341885808CADE57414E472133
:1032F0000C1E4E4757411023991B0248234BA24AEC
:0C330000753140090102030406070809AA
:04000005080000ED02
:00000001FF
